:020000040802F0
:10000000503F0020450102085148020855320208BD
:1000100025470208011602082B790208000000009B
:10002000000000000000000000000000CF5D02089A
:1000300035230208000000008D5202085D0102080D
:100040005F0102085F0102085F0102085F01020808
:100050005F0102085F0102085F0102085F010208F8
:100060005F0102085F0102085F0102085F010208E8
:100070005F0102085F0102085F0102085F010208D8
:100080005F0102085F0102085F0102085F010208C8
:10009000D17802085F0102085F0102085F010208CF
:1000A0005F0102085F0102085F0102085F010208A8
:1000B000716A0208656C02085F010208AD38020827
:1000C000A5380208BD380208B53802085F010208E9
:1000D0005F0102085F0102085F0102085F01020878
:1000E0005F0102085F0102085F0102085F01020868
:1000F0005F0102085F0102085F0102085F01020858
:100100005F0102085F0102086D6E02085F010208CC
:100110005F0102085F0102085F0102085F01020837
:100120005F0102085F0102085F0102085F01020827
:10013000DFF80CD000F026FC00480047A995020823
:10014000503F00200648804706480047FEE7FEE78C
:10015000FEE7FEE7FEE7FEE7FEE7FEE7FEE7FEE777
:10016000D167020831010208F0B480EA0102D40F1D
:100170004200B2EB410F02D20246084611464A0045
:1001800042D0C30DDDB2C1F3C752AD1A202D35DA0E
:10019000C1F3160141F4000204B15242C5F1200638
:1001A00002FA06F12A411044B3EBD05F23D0C4B168
:1001B000012DA0EBC35009DCF0BC4FF0004202EA75
:1001C000C352DBB200F5000000F044BB400000F178
:1001D000807000EBC350A0F1807040EAD1704900FC
:1001E00009E0490841EAC071A0EBC35000F50000E6
:1001F000400800EBC350F0BC00F023BB6142012279
:1002000002EB4101001BF6E7F0BC704781F00041B2
:10021000AAE780F00040A7E780EA010210B502F0EB
:100220000043400022D04A001FD0010E01EB1261B2
:10023000C0F35600C2F3560240F4000042F400023C
:10024000A0FB022000047F39140400D0401C50EAB7
:10025000124001D44000491EC2B20C0604EBD0107B
:10026000401C4008802A02D003E0002010BD20F08E
:100270000100002900DA0020184310BD30B480EAE4
:10028000010202F0004530F0004221F0004013D09E
:1002900090B1C30DD40DC2F31601C0F31600E41AD9
:1002A00041F4000140F400027D34914201D3641C0A
:1002B00000E04900002C02DA30BC002070474FF407
:1002C00000000023914201D3891A034340084FEAFA
:1002D0004101F7D151B1914202D14FF0004105E007
:1002E00002D24FF0010101E06FF0010103EBC450B5
:1002F000284430BC00F0A5BA2DE9FE4F804681EAC3
:100300000300C00F0C46009021F0004123F000458F
:10031000B8EB0200A94105D24046214690461C4652
:100320000B46024623F00040104347D0270DC7F389
:100330000A00C3F30A510290401A019040286BDA78
:10034000C3F3130040F4801B0098924620B10023B1
:10035000D2EB030A63EB0B0B01985946C0F1400244
:10036000504600F03DFA06460D4650465946019A61
:1003700000F055FA10EB08006141002487EA1152A1
:1003800084EAE7731A4340D0009A62B3019A012AC3
:100390004FEA075215DC001B61EB02014FF00042EF
:1003A00002EA0752CDE90042001C41F580113246B5
:1003B0002B4600F098FA03B0BDE8F08F4046214686
:1003C000F9E7001B61EB0201001C41F580130018E6
:1003D0005B412018A2F5001747EB030140EAD570F6
:1003E000B6196D4111E06D084FEA360645EAC07551
:1003F0004FEA0752001B61EB0201001C41F580111E
:1004000049084FEA30000019514132462B4603B0EB
:10041000BDE8F04F00F058BA0098012240000023D8
:10042000D0EB020263EBE073009821464FEAE074E0
:10043000B8EB000061EB0401E9E783F000435BE700
:1004400081F0004158E72DE9FE4F81EA030404F0F2
:10045000004421F0004100944FF0000B23F00043D2
:1004600050EA01045ED052EA03045BD0C3F30A549D
:10047000C1F30A552C44A4F2F3340194A0FB0254B6
:10048000C1F3130141F48011C3F3130343F4801348
:1004900001FB024400FB034E840A970A44EA81549C
:1004A00047EA8357A4FB076802958D0A05FB078579
:1004B0004FEA932C04FB0C542705029D4FEA065883
:1004C00047EA1637B5EB08056EEB070C870E920E60
:1004D00047EA811742EA8312A7FB0201B6EB0B0140
:1004E00064EB00042B0D43EA0C335E1844EB1C5004
:1004F000DA465146E7FB0201C5F313044FEA0B331A
:1005000043EA14534FEA0432019C43EA0603A4F180
:100510000C040294009CCDE900B400F0E4F903B0AF
:10052000BDE8F08F00200146F9E72DE9F04D81EAA2
:10053000030404F0004B21F0004514464FF0000A7C
:1005400023F0004150EA050220D054EA01021DD0F8
:10055000C5F30A570246C5F31303C1F31300C1F3F1
:100560000A5640F4801543F48013A7EB0608101BCD
:10057000D64608F2FD3873EB050002D308F10108F6
:1005800001E092185B41B8F1000F03DA0020014648
:10059000BDE8F08D00204FF48011064684460EE041
:1005A000171B73EB050705D3121B63EB050306430B
:1005B0004CEA010C49084FEA300092185B4150EABE
:1005C0000107EDD152EA030012D082EA040083EA67
:1005D0000501084305D0101BAB4106D201220023C0
:1005E00006E000224FF0004302E06FF001025310DA
:1005F0001AEB06004CEB085110EB0A0041EB0B0123
:10060000BDE8F04D00F060B9C10F80EAE070084429
:10061000CA079623002100F01DB996230022114637
:1006200000F018B90EB5C10F80EAE0700844CA079F
:10063000002140F233438DE80E000A460B4600F0DD
:1006400052F903B000BD0EB540F2334102910021D2
:10065000CDE900110A460B4600F045F903B000BD94
:1006600000F0004220F00040C10DC0F3160040F43D
:1006700000007F2901DA00207047962903DCC1F1D0
:100680009601C84001E096398840002AF4D04042E3
:10069000704720F00040C10DC0F3160040F4000088
:1006A0007F2901DA00207047962903DCC1F1960109
:1006B000C840704796398840704770B5C1F30A52F8
:1006C00001F000450024C1F3130140F2FF3341F46F
:1006D00080119A4201DA002070BD40F233439A4201
:1006E000A2F2334203DC524200F089F800E090406D
:1006F0002C43F1D0404270BDC1F30A5210B5C1F392
:10070000130140F2FF3341F480119A4201DA0020D4
:1007100010BD40F233439A42A2F2334203DC52420C
:1007200000F06DF810BD904010BD00F0004230F0B8
:1007300000400AD0C10D01F56071C0F3160042EA15
:100740000151C2084007114370470020014670471D
:1007500030B5041E71F1000404DB4FF00044404248
:1007600064EB0101141E73F1000405DB1C464FF01D
:100770000043524263EB04038B4208BF824230BD08
:1007800001F0004330B421F0004150EA010206D0EC
:100790000A0DA2F56072C1F31301002A02DC30BC1D
:1007A00000207047440F44EAC104C100E01830BC87
:1007B00000EBC25000F045B8002801DBC0F100405A
:1007C000002901DBC1F1004181427047002801DBB3
:1007D000C0F10040002901DBC1F1004188427047AF
:1007E000202A04DB203A00FA02F1002070479140F1
:1007F000C2F1200320FA03F3194390407047202AE6
:1008000004DB203A21FA02F00021704721FA02F3BA
:10081000D040C2F120029140084319467047202A77
:1008200006DBCB17203A41FA02F043EAE07306E018
:1008300041FA02F3D040C2F1200291400843194628
:1008400070470029A8BF7047401C490008BF20F02E
:100850000100704710B4B0FA80FC00FA0CF050EAC6
:10086000010404BF10BC704749B1CCF1200421FA47
:1008700004F411FA0CF118BF012121430843A3EB42
:100880000C01CB1D4FEA00614FEA102042BF00204F
:1008900010BC704700EBC35010440029A4BF10BC2B
:1008A0007047401C490008BF20F0010010BC704791
:1008B000420005D0C0F3C7525242914201DC0020F1
:1008C000704700EBC150704710B5141E73F100045F
:1008D00008DA401C41F1000192185B411A4301D132
:1008E00020F0010010BD2DE9F04D92469B4611B15C
:1008F000B1FA81F202E0B0FA80F220329046FFF7BE
:100900006FFF04460F4640EA0A0041EA0B015346D6
:100910005A46084313D0114653EA010019D0C8F1D2
:1009200040025046FFF76BFF05460E4650465946BB
:100930004246FFF755FF084305D0012004E020465A
:100940003946BDE8F08D0020054346EAE0762C43A9
:1009500037430A986305E40AA0EB08000022FD0A69
:1009600044EA47540A3002D500200146E9E7010570
:1009700010196941DDE9084500196941BDE8F04DEC
:10098000A2E70000064C074D06E0E06840F00103D6
:1009900094E8070098471034AC42F6D3FFF7CCFB3D
:1009A000B0A70208D0A70208F0B4002802DCF0BC0F
:1009B00000207047C0F3C751C0F3160040F4000098
:1009C000CA0701D14000491E3F2202EB6105002207
:1009D00011464FF4000626FA01F31344D41884425A
:1009E00001D8001B1A464000491C1729F3DD5100AD
:1009F000814202D24FF0FF3100E0002102EBC550EE
:100A0000F0BCFFF71EBF70B521F0004303430CD0CC
:100A1000C1F30A550024D5EB040564EB0403D61793
:100A2000AD1AB34102DB0020014670BD201841EB36
:100A3000025170BD70B58C1810F8015B15F00703FA
:100A400001D110F8013B2A1106D110F8012B03E067
:100A500010F8016B01F8016B5B1EF9D12B0705D46F
:100A60000023521E0DD401F8013BFAE710F8013BB8
:100A7000CB1A921C03E013F8015B01F8015B521ED4
:100A8000F9D5A142D8D3002070BD000008B50121DE
:100A9000084604F007FE01214FF4017004F032FE15
:100AA0004FF4004004F0F2FD1020ADF800000020EB
:100AB0008DF803006946024802F038F908BD0000CD
:100AC0000008014010B5FFF7E1FF00F001F810BD8C
:100AD00000B591B0334801F0ADF833480690334883
:100AE0000790002008900120099000200A908020A3
:100AF0000B9040000C9080000D9020200E90000282
:100B00000F900020109006A9264801F039F9012124
:100B1000244801F083F80020019001208DF808009E
:100B20008DF809004FF4602003900020049001200C
:100B30008DF8140001A91C484C3800F06FF805230B
:100B40000122042118484C3800F090F80021164882
:100B50004C3800F043F8012113484C3800F033F8CA
:100B6000012111484C3800F023F80F484C3800F0B0
:100B7000D9F800BF0C484C3800F045F80028F9D1EE
:100B800009484C3800F0DEF800BF07484C3800F048
:100B900030F80028F9D1012103484C3800F0C7F89B
:100BA00011B000BD080002404C2401402E0100207D
:100BB00021B1826842F00102826003E0826822F083
:100BC00001028260704721B1826842F480728260C3
:100BD00003E0826822F480728260704721B18268EB
:100BE00042F48012826003E0826822F48012826004
:100BF0007047014600208A6802F004020AB1012011
:100C000000E000207047014600208A6802F00802D8
:100C10000AB1012000E000207047000030B5024614
:100C20000020002350680F4C20400D790C6844EAE6
:100C300005242043506090680B4C2040D1E90254B9
:100C40002C434D7944EA450420439060D06A20F457
:100C500070000C7C641EE4B2234340EA0350D0626F
:100C600030BD0000FFFEF0FFFDF7F1FFF0B50446D8
:100C70000D4600200021092D11DDE068A5F10A06CE
:100C800006EB4607072606FA07F18843A5F10A0690
:100C900006EB460603FA06F10843E0600CE0206923
:100CA00005EB4507072606FA07F1884305EB4506DD
:100CB00003FA06F108432061072A0FDA606B561E1B
:100CC00006EB86071F2606FA07F18843561E06EB39
:100CD000860605FA06F10843606322E00D2A0FDA62
:100CE000206BD61F06EB86071F2606FA07F18843FE
:100CF000D61F06EB860605FA06F10843206310E0CE
:100D0000E06AA2F10D0606EB86071F2606FA07F138
:100D10008843A2F10D0606EB860605FA06F10843A4
:100D2000E062F0BD816841F008018160704721B147
:100D3000826842F4A002826003E0826822F4A0028A
:100D400082607047816841F0040181607047000053
:100D50002DE9F04F93B0924A11691069FFF75CFAE0
:100D600007468F4AD168D068FFF756FA80468C4A0A
:100D700091689068FFF750FA83464146FFF7F4F90F
:100D800006463946FFF7F0F9054604F0A5FA0B9040
:100D9000834988680B99FFF73FFA11908049C8682A
:100DA0000B99FFF739FA10907D4908690B99FFF705
:100DB00033FA0F907B4905A804F01EFC05AD059899
:100DC00008900698099007980A9009990F98FFF7DC
:100DD00023FA05460A991098FFF71EFA0646294697
:100DE000FFF714FA04460A991198FFF715FA054619
:100DF00008990F98FFF710FA06462946FFF706FAFA
:100E0000814608991098FFF707FA05460999119845
:100E1000FFF702FA06462946FFF7F8F982466249CB
:100E20002046FFF7F9F90546604801682846FFF7B4
:100E30009BF95E4908605C494846FFF7EDF90546B5
:100E40005B4801682846FFF78FF959490860564901
:100E50005046FFF7E1F90546564801682846FFF776
:100E600083F95449086051480068FFF75EFCCDE9FA
:100E70000401204606F0BCFD83464F49FFF7CCF93C
:100E800080462146FFF7C8F90746FFF74EFC0546A6
:100E90000E464349C86BFFF748FC0746474A484B94
:100EA000FFF7D1FA2A463346CDE90001FFF724FACD
:100EB000CDE90201DDE90423FFF71EFACDE90601C1
:100EC000FFF75EFC0E903A480068FFF72EFCCDE974
:100ED0000401484606F08CFD83463749FFF79CF92C
:100EE00006464946FFF798F90546FFF71EFC0746F8
:100EF00088462B49086CFFF718FC05462F4A304BF3
:100F0000FFF7A1FA3A464346CDE90001FFF7F4F9AD
:100F1000CDE90201DDE90423FFF7EEF9CDE9060191
:100F2000FFF72EFC0D9023480068FFF7FEFBCDE98C
:100F30000401504606F05CFD1F490090FFF76CF974
:100F400051460190FFF768F98346FFF7EEFBCDE9C4
:100F500002011349486CFFF7E8FB184A184BCDE92A
:100F60000001FFF770FA0746DDE90223FFF7C4F935
:100F70000546DDE90423FFF7BFF9CDE90601FFF7D8
:100F8000FFFB0C900F4800900648DDE90C320E99EB
:100F900004F007FA034804F0C7F913B0BDE8F08F76
:100FA000081C0020A00200206F12033AC402002097
:100FB000C8020020CC0200203333333FD9999DA0D2
:100FC000A8C7413F6F12833A2DE9F04F8DB000F072
:100FD0003DF99248FFF7BCFE9149904804F072FA3F
:100FE0008F494868FFF7A1FB064608F0D7FB044687
:100FF000FFF7C6FB0B908A490868FFF796FB064689
:1010000008F0CCFB0446FFF7BBFB0C908449486812
:10101000FFF78BFB064607F0A9FE0446FFF7B0FB7F
:101020000A907F490868FFF780FB064607F09EFE9E
:101030000446FFF7A5FB09907A48C07800287DD1C7
:1010400078484078002879D07749B1F90400FFF753
:10105000DBFA07460A99FFF7DFF806460C99FFF717
:10106000DBF804467049B1F90200FFF7CDFA81467A
:101070000C99FFF7D1F880460B99FFF7CDF806469B
:101080006949B1F90000FFF7BFFA80460999FFF7F7
:10109000C3F807463146FFF767F805462146FFF7D4
:1010A000B5F808906049B1F90400FFF7ADFA0646BB
:1010B0000B99FFF7B1F804465B49B1F90200FFF75D
:1010C000A3FA06460A99FFF7A7F805462146FFF757
:1010D0004BF807900898FFF728FB82468B46079845
:1010E000FFF723FB804652465B4607F011FC06469D
:1010F00001F022F981F000410446FFF741FB069020
:101100004A49486CFFF711FB0646494A494BFFF72D
:101110009AF9804600224FF08043FFF794F94FF090
:101120006042454BCDE90001FFF78DF9824601F0A1
:1011300003F9CDE902013A49886800E047E0FFF78A
:10114000F4FA0446DDE90223FFF7D6F8CDE90401FD
:10115000FFF716FB3249886038490698FFF736FBDF
:1011600005D22F4988683649FFF726FB0AD3344950
:101170000698FFF721FB19D2294988682F49FFF704
:1011800025FB13D22F490698FFF746F80646244858
:10119000806880F000452C492846FFF73DF804465A
:1011A0003146FEF7E1FF1E4988600FE025490698A9
:1011B000FFF732F804461A4988682349FFF72CF8EC
:1011C00005462146FEF7D0FF154988600BE014491B
:1011D0008868FFF7AAFA064601F0AEF80446FFF762
:1011E000CFFA0F4988600E494868FFF79EFA064615
:1011F00001F0A2F80446FFF7C3FA094948600868FD
:10120000FFF793FA064601F097F80446FFF7B8FA9D
:10121000034908600DB0BDE8F08F0000A002002077
:10122000D81D0020D61C0020B0020020081C002081
:10123000D9999DA0A8C7413F4D62503F0000B442DC
:101240000000B4C26F12033BEE7C7F3F2DE9FF41EB
:1012500003F00EF83C4801F041FF3C49B1F90000B1
:10126000FFF7E0F906460F4605203949394BCDE92D
:101270000030394B394ACDE902103046394602F088
:1012800075FD0446FFF77CFA30498860B1F9020029
:10129000FFF7C8F906460F4605202D492D4BCDE92D
:1012A00000302D4B28332D4A2832CDE9021030462C
:1012B000394602F05BFD0446FFF762FA2349C86035
:1012C000B1F90400FFF7AEF906460F4605202049A4
:1012D000204BCDE90030204B5033204A5032CDE92D
:1012E00002103046394602F041FD0446FFF748FA45
:1012F0001649086108461A4AC16D1A48006802F08A
:101300009DFF1249C8630846C06B164908600F4824
:10131000134A016E1448006802F090FF01460B4822
:101320000164006C1049086008480D4A416E0F487E
:10133000006802F083FF014604484164406C0B4999
:101340000860BDE8FF810000B0020020081C0020FA
:101350007802002050020020601D0020E81C0020C0
:10136000CBA1C53EB8020020BC020020C002002074
:101370002DE9FE4F9249086CFFF7D7F98246914A52
:10138000914BFFF760F806460F469049486AFFF711
:10139000CCF9804632463B46FFF74FF80446FFF74C
:1013A000EFF902908949886A0299FEF735FF0146F4
:1013B0008648C1630146486B0299FEF7D5FE014697
:1013C000824841630146824A486B824907F01CFD0E
:1013D00001467E4841630146C86A7F49FEF74EFFD9
:1013E00004467A48416B2046FEF716FF01467748CF
:1013F0000164734A116CD06CFEF708FF0446734811
:10140000016B2046FEF708FF014670484164024622
:10141000116CD06BFEF7A8FE04466C48416C204668
:10142000FEF7A2FE0146694881646548016CC1640B
:101430000146C86BFFF779F98246624A624BFFF7B3
:1014400002F806460F466149C86EFFF76EF98046FE
:1014500032463B46FEF7F1FF0446FFF791F9019053
:101460005A49086F0199FEF7D7FE01465748C0F860
:1014700084100146C86F0199FEF776FE0146534875
:10148000C1670146524AC86F524907F0BDFC014688
:101490004E48C1670146486F4F49FEF7EFFE0446CC
:1014A0004A48C16F2046FEF7B7FE01464748C0F8DC
:1014B0008810434AD16B906CFEF7A8FE044643485F
:1014C000816F2046FEF7A8FE01464048C0F88C1008
:1014D0000246D2F88810D2F88400FEF745FE044692
:1014E0003A48D0F88C102046FEF73EFE01463748B9
:1014F000C0F890103248C16B81640146486CFFF718
:1015000014F980462F4A304BFEF79DFF04460D46E6
:101510002E49D1F8B400FFF708F9064622462B46BB
:10152000FEF78BFF8246FFF72BF900902749D1F891
:10153000B8000099FEF770FE01462448C0F8CC10B0
:101540000146D1F8C4000099FEF70EFE01461F487F
:10155000C0F8C41001461E4AD1F8C4001D4907F066
:1015600053FC01461948C0F8C4100246D2F8C41012
:10157000D2F8BC00FEF750FE01461448C0F8D01067
:101580000F4A516C106DFEF741FE04460F48D0F82B
:10159000C0102046FEF740FE01460C48C0F8D410AB
:1015A0000246D2F8D410D2F8CC00FEF7DDFD014699
:1015B0000648C0F8D8100248416C0165BDE8FE8FAE
:1015C000081C002030689DC8FE3F9F3F641E00201D
:1015D0000000A0C10000A0410000204108B506485D
:1015E0000649086040F20550009001226946024811
:1015F000103804F065FB08BD0000020808ED00E0AB
:1016000000BFFEE70146CAB20B1243EA0220704750
:101610002DE9FF416D48007802287DDB6C4A116896
:101620000098FEF7F3FD0646684908693146FEF763
:101630009BFD664908610A4651691069FFF7C6F8C3
:1016400003D26248416901610FE06048406980F05F
:1016500000455E4801692846FFF7B8F805D25B48A7
:10166000406980F0004159480161584A1169906809
:10167000FEF7D2FD0546554948683146FEF7CCFDD8
:1016800080462946FEF770FD50494862504A51682D
:101690000198FEF7BBFD07464C49886D3946FEF7B9
:1016A00063FD4A4988650A46D16D906DFFF78EF853
:1016B00003D24648C16D81650FE04448C06D80F09B
:1016C00000454248816D2846FFF780F805D23F4823
:1016D000C06D80F000413D4881653C4A916D106DC0
:1016E000FEF79AFD05463949C86C3946FEF794FD68
:1016F00080462946FEF738FD3449C866344A916869
:101700000298FEF783FD05463249FFF75FF80BD3D9
:101710002F4A9168029800E04CE0FEF777FD0546FD
:101720002D49FFF749F834D200210298FFF74EF80F
:1017300014D2274988680021FFF73EF80ED22549C8
:101740000298FEF763FD0546214881682248FEF7AE
:101750005DFD80462946FEF707FD044600210298FC
:10176000FFF72AF81BD21A4988680021FFF72EF8E4
:1017700015D218490298FEF7F7FC0546144881680F
:101780001448FEF743FD80462946FEF7EDFC04466B
:1017900005E00F4A91680298FEF738FD04460B49B0
:1017A000D1F894002146FEF737FD0849C1F8B4008E
:1017B0000020087005480078401C04490870FFF7B5
:1017C000D7FD02F0B1FFBDE8FF810000641E0020DC
:1017D000D81D002000003443000034C308B50020A9
:1017E000009022E19748008800F00F0096490870A9
:1017F0000846007800287CD1944800689449088005
:101800000846008800F0300092490880904800881F
:1018100000F440508E4908808C4909684BF6BF722D
:1018200001EA020080F4005080F0200040F4004102
:1018300041F08001854A11608248008800F0100064
:1018400090BB1046006848F60F71084011460860CA
:1018500002F006FB7D4909684BF6BF7201EA0200FF
:101860007B49098801F4805109B180F4805078499E
:10187000098801F4005109B180F4005075490988C4
:1018800001F0100109B180F010007249098801F0DF
:10189000200109B180F0200081B241F4004141F003
:1018A00080016A4A116008BDFFE76848006880B29D
:1018B0000090BDF8000000F40060B0B36348006819
:1018C000C0F30E0048F68F7108406049086004F0CC
:1018D0008DFC5E4909684BF6BF7201EA02005C4963
:1018E000098801F4805109B180F480505849098871
:1018F00000E056E001F4005109B180F40050554970
:10190000098801F0100109B180F0100051490988DF
:1019100001F0200109B180F0200081B241F40041C2
:1019200041F08001494A1160BDE7FFE7BDF80000C2
:1019300000F40040002878D044480068C0F30E004E
:1019400048F68F7108404149086003F089FB3F4920
:1019500009684BF6BF7201EA02003D49098801F4AB
:10196000805109B180F480503949098801F400514F
:1019700009B180F400503749098801F0100109B11C
:1019800080F010003349098801F0200109B180F08E
:10199000200081B241F4004141F080012B4A1160E6
:1019A00081E7294800782C4901EB8000D0F8000C31
:1019B00080B20090BDF8000000F40040C0B12248A1
:1019C000007801EB8000D0F8000CC0F30E0048F660
:1019D0008F7108401C4909781F4A02EB8101C1F848
:1019E000000C19490978491E1C4A52F82100804709
:1019F000BDF8000000F08000B8B113480078164927
:101A000001EB8000D0F8000C48F60F7108400E4939
:101A10000978114A02EB8101C1F8000C0A490978E2
:101A2000491E0F4A52F82100804708484430006898
:101A300080B20449088000F4004000287FF4D2AE50
:101A400000BF30E75000002018000020005C00407C
:101A50002C0000202E0000200050004070000020CC
:101A6000540000202DE9F04100243F48B0F90A005D
:101A700040F2DC51091A3C48B0F91000C0EBC0003C
:101A8000143091FBF0F52846FEF7BEFD374908609B
:101A90003548B0F90800A0F2DC503349B1F9101014
:101AA000C1EBC101143190FBF1F52846FEF7ACFD06
:101AB0002E4948602C48B0F90C00B0F5966F0BDD4C
:101AC0002B48407901280ED0012029494871294826
:101AD00080682649886006E000202549487125482D
:101AE0008068224988602048B0F90E00B0F5C86FC0
:101AF00005DC1D48B0F90E00B0F5AF6F32DA1A48B8
:101B0000C08940F2DC51081A04B22046FEF77CFD81
:101B100007461949FEF7B2FB06461849FEF77CFB5B
:101B20000546124881682846FEF71EFB0F4988606B
:101B300088681349FEF74AFE07D20C4988681149A4
:101B4000FEF764FB094988600CE0084988680E4983
:101B5000FEF732FE06D2054988680A49FEF704FB03
:101B600002498860BDE8F081881C0020401F0020E9
:101B7000D61C0020D81D002000004843CDCCCC3D11
:101B8000000034430000B443000034C30B4A02EBAE
:101B90008001D1F8001C01F4804171B102EB800199
:101BA000D1F8001C48F68F7211404CF280021143AC
:101BB000024B03EB8002C2F8001C7047005000404B
:101BC0000B4A02EB8001D1F8001C01F0400171B119
:101BD00002EB8001D1F8001C48F68F72114048F2E8
:101BE000C0021143024B03EB8002C2F8001C704795
:101BF00000500040084A02EB8001D1F8001C48F672
:101C00008F62114048F280021143034B03EB8002C4
:101C1000C2F8001C704700000050004021B102686B
:101C200042F00102026004E002684FF6FE731A40BF
:101C30000260704701684FF6FE721140016000219A
:101C4000016041608160C1604B49884208D14A49C6
:101C50000839496841F00F01474A083A51608AE063
:101C600045491431884208D143490839496841F04F
:101C7000F001414A083A51607DE03F4928318842ED
:101C800008D13D490839496841F470613A4A083A37
:101C9000516070E038493C31884208D136490839F2
:101CA000496841F47041344A083A516063E032496E
:101CB0005031884208D130490839496841F47021CF
:101CC0002D4A083A516056E02B496431884208D1C8
:101CD00029490839496841F47001274A083A516096
:101CE00049E025497831884208D1234908394968B3
:101CF00041F07061204A083A51603CE01F49884237
:101D000006D1011F096841F00F01021F116032E086
:101D10001A491431884208D11849091F096841F04D
:101D2000F001164A121F116025E01449283188423B
:101D300008D11249091F096841F470610F4A121F46
:101D4000116018E00D493C31884208D10B49091F48
:101D5000096841F47041094A121F11600BE00749FC
:101D60005031884207D10549091F096841F47021A3
:101D7000024A121F11607047080002400804024026
:101D800010B50022026847F6F0739A430C6A8B681C
:101D900023430C6923434C6923438C692343CC6957
:101DA00023434C6A23438C6A23431A430260CB6863
:101DB00043600B6883604B68C36010BD2DE9F0473A
:101DC0002848006800F110052E8826480068077A28
:101DD000D6B9042F18D12448007801280FD100214A
:101DE0002248006880B2801C214A42F8101030203E
:101DF0002049088000BF00201B49087003E0072726
:101E000010201C49088027E0AC88A64201D8042095
:101E100000E002200746B44200D93446A0B2A968C7
:101E200088478046002001F085F88146A2B24946E5
:101E3000404605F0C1FDA1B2002004F009F9288850
:101E4000001B288068882044688030200949088069
:101E500000020949088000BF024909680F72BDE805
:101E6000F08700001C00002016000020505C00409D
:101E7000006000402E0000202C0000202DE9F041E1
:101E80002848006800F110042688A068C0B1BEB1DF
:101E9000A588B54200D93546A8B2A168884707464B
:101EA0002088401B2080608828446080002001F04A
:101EB0001FF88046AAB24146384603F0F9F800BF41
:101EC000208850B14FF4405017490880002108463F
:101ED00004F0BEF83020154908802088A188884287
:101EE00004DB03200F490968087218E020880028E5
:101EF00004DD05200B490968087210E0208870B9DC
:101F0000062008490968087200210948006880B263
:101F1000801C084A42F81010302004490880BDE8AF
:101F2000F08100001C0000202C0000202E0000206A
:101F3000505C00400060004070B504462088A52831
:101F40007ED160885A28FBD1A0880A28F8D1A08ABF
:101F50001228F5D1E08A3428F2D1E088302804D064
:101F600031282FD032286CD159E0217A090209B2E8
:101F7000628941EA0200FEF747FB05464449FEF745
:101F80007DF944498862217B090209B2E28941EA6C
:101F90000200FEF739FB05463D49FEF76FF90146A1
:101FA0003C48C162217C090209B2628A41EA02000E
:101FB000FEF72AFB05463649FEF760F9014635482B
:101FC000016360E0217A090209B2628941EA0200F4
:101FD000FEF71AFB05462E49FEF750F92D49086712
:101FE000217B090209B2E28941EA0200FEF70CFBFB
:101FF00005462749FEF742F9014626484167217CFC
:10200000090209B2628A41EA0200FEF7FDFA0546BA
:102010001F49FEF733F901461E48816733E0217AF4
:10202000090209B2628941EA0200FEF7EDFA0546AB
:102030001749FEF723F91749C1F8B800217B01E0E1
:1020400025E01FE0090209B2E28941EA0200FEF739
:10205000DBFA05460E49FEF711F901460D48C0F8B6
:10206000BC10217C090209B2628A41EA0200FEF733
:10207000CBFA05460649FEF701F901460548C0F8C6
:10208000C01000E000BF00BF01200349487270BDCE
:102090000000C842641E0020D61C00202DE9F84F25
:1020A0009B48006845780027BA46062D1BD1984802
:1020B0000068007800F07F00002813D19449096877
:1020C0008878012803D193490968CF690AE002287A
:1020D00003D1904909680F6A04E0032802D18D49B1
:1020E00009684F6A94E0002D64D1894800684088EF
:1020F00000285FD186480068C08802285AD18448E9
:1021000000680079002855D181480068007800F007
:102110007F0028B97E480068808808B97E4F77E044
:102120007B480068007800F07F00012810D17849D2
:1021300009684879774909688A6900219047002829
:1021400066D173480068807A002861D0724F5FE0E2
:102150006F480068007800F07F00022858D16C4872
:102160000068407900F00F0669480068407900F087
:10217000700967480068407900F0800038B167490D
:1021800001EB8600D0F8000C00F0300806E063494F
:1021900001EB8600D0F8000C00F44058604800784D
:1021A000B04235D9B9F1000F32D1B8F1000F2FD0BC
:1021B000594F2DE0082D07D155480068007800F0F0
:1021C0007F0028BB574F23E00A2D21D150480068DB
:1021D000007800F07F0001281AD14D480068807A0D
:1021E000B0B14B480068408890B949480068007910
:1021F00070B947480068C088012809D14449096876
:102200004879444909688A690021904700B9464FD6
:1022100057B13F480068A0F812A03D4800688761A8
:102220000020B84700240FE0394A12685078394A34
:102230001268116988470446032C05D109203449E6
:1022400009680872BDE8F88F31480068008A4FF6C7
:10225000FF71884204D109202D4909680872F1E70D
:10226000022C03D02A480068008A20B90820284997
:1022700009680872E6E726480068007800F08000E8
:10228000E0B323480068C088009021480068008AB5
:102290000099884204D91E4900980968088223E001
:1022A0001B480068008A1A490968C98888421BDAF5
:1022B00017480068008A1749096891F82C1088426D
:1022C00003DA0020194908700EE011480068008AFE
:1022D0001049096891F82C1090FBF1F201FB1200F3
:1022E00010B90120114908700A48006890F82C10B4
:1022F000074800688182FFF761FD07E0FFE70320E0
:1023000003490968087200030949088000BF99E77A
:102310001C0000202000002025650208005000401D
:1023200098000020A9640208F96402081600002041
:102330002C000020704700002DE9F04104460D46B6
:102340004FF0C042054B20462946FEF7EEF8064600
:102350000022034BFEF777F8BDE8F081FB2109402E
:10236000008066402DE9FF5F86B014461D464FF0A1
:10237000010A00200390049005904FF00109002607
:1023800000BF83460022134620462946FEF7E0F9A7
:1023900009D285F00040CDE9004020460199FEF7C2
:1023A0008CF9064604E020462946FEF786F90646E3
:1023B0003046FEF737F922462B46CDE90001FEF7FD
:1023C0003FF8074688460022544B38464146FEF700
:1023D0003AF8CDE90001FEF78FF9834607E009EBF3
:1023E00089004FEA40090AF1010000F0FF0A0A20C3
:1023F00096FBF0F090FBF9F00028F0D142F210705B
:1024000096FBF0F00A2190FBF1F201FB1200C0B242
:102410008DF80C004FF47A7096FBF0F090FBF1F21F
:1024200001FB1200C0B28DF80D00642096FBF0F0A5
:1024300090FBF1F201FB1200C0B28DF80E000A20F1
:1024400096FBF0F090FBF1F201FB1200C0B28DF8A8
:102450000F000A2096FBF0F100FB1160C0B28DF86E
:1024600010002E208DF811004FF47A70BBFBF0F0B5
:102470000A21B0FBF1F201FB12008DF8120064207A
:10248000BBFBF0F0B0FBF1F201FB12008DF8130082
:102490000A20BBFBF0F0B0FBF1F201FB12008DF85B
:1024A00014000A20BBFBF0F100FB11B08DF8150001
:1024B00000211498801D03AA1154894608E003A83E
:1024C00010F80900303003A901F8090009F10109E9
:1024D000B9F10A0FF3DB0022134620462946FEF726
:1024E00037F908D20AF1010000F0FF0A2D20CAF1E5
:1024F000050103AA50542E208DF8110000211498D4
:10250000801D03AA1154CAF1050003A94218DDE990
:10251000061002F0D7FC0AB0BDE8F09F0088C34067
:102520000346062106221248018812480288ABB1F0
:10253000012B1BD13AB94EF6EE60814201D1002049
:1025400070470120FCE739B94EF6EE60824201D1B6
:102550000120F5E70020F3E7AB20F1E709B90020FF
:10256000EEE70AB90120EBE7AB20E9E70020E7E757
:10257000000001080008010810B504240B4800F011
:1025800003FB0446042C01D0204610BD002107485F
:1025900000F044FB0446042C01D02046F5E7044833
:1025A00000F0F2FA04462046EFE7000000000108C0
:1025B0000008010810B505F0B7FB044601F0AAFCBD
:1025C000204610BD2DE9F84F074689460425DFF85F
:1025D000D4A0354800904FF00008002400264FF0AA
:1025E000000B0020FFF79CFF8046B8F1010F04D1DB
:1025F000DFF8B4A02D4800900AE0B8F1000F04D134
:10260000DFF8A8A02848009002E0AB20BDE8F88FD2
:102610004EF6EE61504600F001FB0546042D01D058
:102620002846F3E701F076FC4946384600F020FAE8
:102630000646042E01D03046E8E700241DE01C4881
:1026400030F81400B84216D0194931F8140019496D
:1026500000F014F98346BBF1010F0CD0154A128823
:1026600091B2134A32F8140000F002FA0646042E22
:1026700001D03046CAE7601C84B24B2CDFDB0098E7
:1026800000F082FA0546042D01D02846BEE700215D
:10269000504600F0C3FA0546042D01D02846B5E7A0
:1026A0002846B3E7FF0301080000010800080108FD
:1026B0009E0100203401002010B50949088809490D
:1026C00000F0DCF8064948880649891C00F0D6F875
:1026D000034988880349091D00F0D0F810BD0000A7
:1026E0009E010020281C002038B54B49488A6946C5
:1026F00000F0C4F8BDF8000000B938BDBDF9000015
:10270000FDF782FF04464549FDF7B8FD444988625C
:102710004149888A694600F0B1F8BDF90000FDF72B
:1027200073FF04463F49FDF7A9FD01463C48C162DD
:102730003949C88A694600F0A1F8BDF90000FDF7E3
:1027400063FF04463549FDF799FD014634480163AE
:102750003149088B694600F091F8BDF90000FDF79A
:1027600053FF04462D49FDF789FD2D4908672A4985
:10277000488B694600F082F8BDF90000FDF744FF80
:1027800004462849FDF77AFD01462548416722495C
:10279000888B694600F072F8BDF90000FDF734FF40
:1027A00004461E49FDF76AFD01461D4881671A4926
:1027B000C88B694600F062F8BDF90000FDF724FF00
:1027C00004461649FDF75AFD1549C1F8B8001249EB
:1027D000088C694600F052F8BDF90000FDF714FFBF
:1027E00004461049FDF74AFD01460D48C0F8BC10EB
:1027F0000949488C694600F041F8BDF90000FDF731
:1028000003FF04460549FDF739FD01460448C0F8B9
:10281000C01000BF71E700009E0100200000C84208
:10282000641E002000007A4410B51249C88812497D
:1028300000F024F80F4908890F49891C00F01EF8A0
:102840000C4948890C49091D00F018F80949888984
:102850000949891D00F012F80649C889064908315E
:1028600000F00CF80349088A03490A3100F006F821
:1028700010BD00009E010020701C00202DE9F047D3
:1028800006460F46002545F255584FF00109124CF7
:10289000A2460020FFF744FE0546AB2D01D1BDE85E
:1028A000F0870D4800EBC52A0C480068841E0BE039
:1028B000B4F80080B04506D134F8020C00B238807C
:1028C0004FF0000904E0241F0AF102008442EFD80F
:1028D00000BF4846E3E7000000000108380100207F
:1028E00010B50B4AB2F920100A4A108800F004F91A
:1028F000074AB2F92210074A508800F0FDF8044A4E
:10290000B2F92410034A908800F0F6F810BD0000D8
:10291000081C00209E01002070B54548407A002820
:102920007ED00020424948724249886A4249FDF7F8
:1029300073FC0546FDF7ADFE84B24049488A21B2DA
:1029400000F0DAF83B49C86A3D49FDF765FC0546E9
:10295000FDF79FFE84B23949888A21B200F0CCF895
:102960003449086B3449FDF757FC0546FDF791FEE5
:1029700084B23249C88A21B200F0BEF82D49086FEE
:102980002D49FDF749FC0546FDF783FE84B22B492E
:10299000088B21B200F0B0F82649486F2849FDF7AE
:1029A0003BFC0546FDF775FE84B22449488B21B2F5
:1029B00000F0A2F81F49886F1F49FDF72DFC05465E
:1029C000FDF767FE84B21D49888B21B200F094F8B0
:1029D0001849D1F8B8001849FDF71EFC0546FDF767
:1029E00058FE84B21549C88B21B200F085F8114910
:1029F000D1F8BC001249FDF70FFC0546FDF749FE72
:102A000084B20E49088C21B200F076F80949D1F859
:102A1000C0000949FDF700FC0546FDF73AFE00E05D
:102A200005E084B20549488C21B200F065F870BD1C
:102A3000D61C0020641E00200000C8429E01002019
:102A400000007A4410B500240BE0074A126832F9FE
:102A50001410E21C054B33F8120000F04DF8601C16
:102A6000C4B2062CF1DB10BD800100209E010020C5
:102A70002DE9F04104460F4604250026DFF86C805E
:102A80000120FFF74DFD0646AB2E01D1BDE8F081D8
:102A9000701C174901EBC02821E016480068006847
:102AA000401CB8B939461348006800F0B7F805462D
:102AB000042D01D02846E9E721460E480068801C15
:102AC00000F0ACF805460B480068001D0949086095
:102AD0002846DBE707480068001D064908600548EE
:102AE00000684045D9D38020D0E70000FF070108E7
:102AF000FEFF00083801002070B506460C46002590
:102B0000A1B23046FFF7B4FF0546802D04D1A1B233
:102B10003046FFF757FD0546284670BDF8B500263C
:102B2000104D002710E0684606F0D8FE04469DF8D8
:102B3000000000B90AE09DF80000304486B225F894
:102B4000024BAD1C781C87B2202FECDB00BF06B90E
:102B5000F8BD3146012003F07BFA012003F0A6FA0C
:102B600000BFF5E78061004010B590B069460320D2
:102B700004F0C4FE84B22146684606F047FF0320F5
:102B800003F03CFA10B010BD30B5044604254FF4F4
:102B9000302000F06FF80546042D17D10C4800696D
:102BA00040F002000A49086108464461006940F0AB
:102BB000400008614FF4302000F05CF805460448FE
:102BC000006941F6FD71084001490861284630BDA1
:102BD0000020024004200B49C96801F0010109B13D
:102BE00001200EE00749C96801F0040109B1022083
:102BF00007E00449C96801F0100109B1032000E0B1
:102C000004207047002002400348006940F0800023
:102C100001490861704700000020024070B5044679
:102C20000D460426F00200F025F80646042E11D1C8
:102C30000948006940F00100074908612580F00259
:102C400000F018F806460448006941F6FE71084095
:102C500001490861304670BD002002400248034926
:102C600048600348486070472301674500200240E0
:102C7000AB89EFCD00B502460423FFF7ABFF034657
:102C800003E0FFF7A7FF0346521E012B01D1002AE4
:102C9000F7D102B90523184600BD000010B51A4847
:102CA000007910B10020194908701748007910B94F
:102CB0000120164908701448807910B10220134988
:102CC00008701148807910B10220104908700E4830
:102CD000C079A8B10C48C079012804D0022806D0D8
:102CE00003280CD107E004200849087007E00520FC
:102CF0000649087003E006200449087000BF00BFC1
:102D000001F0CAF910BD0000D61C002028010020E7
:102D100030B503461C788C545D78541C0D559D7855
:102D2000941C0D55DD78D41C0D5530BD2DE9F041B6
:102D3000024600250026002000230024002791F8E9
:102D400003C00CF00F0591F803C00CF0100CBCF19F
:102D5000000F03D091F802C04CEA050591F800C0BD
:102D6000BCF1000F31D0146800202BE04FF0010CB3
:102D70000CFA00F3B1F800C00CEA03069E4220D121
:102D800083004FF00F0C0CFA03F7BC4305FA03FC69
:102D90004CEA040491F803C0BCF1280F06D14FF0AF
:102DA000010C0CFA00FCC2F814C00AE091F803C050
:102DB000BCF1480F05D14FF0010C0CFA00FCC2F831
:102DC00010C0401C0828D1D31460B1F800C0BCF179
:102DD000FF0F34DD546800202EE000F1080C4FF0A6
:102DE000010808FA0CF3B1F800C00CEA03069E4291
:102DF00021D183004FF00F0C0CFA03F7BC4305FA06
:102E000003FC4CEA040491F803C0BCF1280F05D17F
:102E100000F1080C08FA0CF8C2F8148091F803C00D
:102E2000BCF1480F07D100F1080C4FF0010808FA77
:102E30000CF8C2F81080401C0828CED35460BDE8BE
:102E4000F0810000F0B50A4600230024002100258F
:102E500000F00046B6F1004F02D11D4EF16901E0CD
:102E60001B4E7168C0F3034583B200F44016B6F5FB
:102E7000401F08D121F07061154E766826F070660B
:102E8000134F7E6012E000F48016B6F5801F06D165
:102E9000032606FA05F4A14341F0706106E0460DF1
:102EA000360103FA06F6B14341F0706122B1460DD6
:102EB000360103FA06F6314300F00046B6F1004F42
:102EC00002D1034EF16101E0014E7160F0BD0000DE
:102ED000000001400246002093680B400BB1012026
:102EE00000E00020704741617047016170470000B9
:102EF00001460548006880B200EBC100001D034A8E
:102F000032F8100080B27047505C00400060004012
:102F100001460648006880B200EBC100801D044AEB
:102F200032F81000C0F3090070470000505C004008
:102F30000060004001460548006880B200EBC10017
:102F4000034A32F8100080B270470000505C004025
:102F5000006000402DE9F04104460A480568001D64
:102F60000668001D07683D4455B10822A11C28468B
:102F700001F043F8042204F11201304601F03DF85B
:102F8000BDE8F081E8F7FF1F30B590FBF3F425B200
:102F9000074CA4F8545091FBF3F425B2044CA4F868
:102FA000565092FBF3F425B2014CA4F8585030BDB2
:102FB000081C00202DE9F04186B04FF000080020E9
:102FC0000390049005900090019002900025002647
:102FD000002778E0B8F1320F51DA01F049F93D49A4
:102FE000B1F934100098084400903A48B0F936001E
:102FF0000199084401903748B0F938000299084413
:1030000002903448B0F934000399281A05D53148A4
:10301000B0F934006A42101A03E02E48B0F93400C7
:10302000281A084403902B48B0F936000499301A46
:1030300005D52848B0F936007242101A03E0254839
:10304000B0F93600301A084404902248B0F938002C
:103050000599381A05D51F48B0F938007A42101A78
:1030600003E01C48B0F93800381A084405901948A4
:10307000B0F93450B0F93660B0F938701FE00398F9
:10308000642805DA0498642802DA059864280EDBBF
:103090004FF00008002407E0002003A941F82400B5
:1030A0004DF82400601CC4B2032CF5DB07E032238A
:1030B0009DE80700FFF768FF01200749087008F145
:1030C000010000F0FF0804480078002882D006B014
:1030D000BDE8F081081C00207D0100202DE9FF41A2
:1030E0000546002602AB062203213C2000F046FDE7
:1030F000544800680A2190FBF1F052490968081A07
:10310000504908609DF809009DF8081040EA012028
:1031100000B24C49096808444A49086008460068FA
:103120000A2190FBF1F000B2ADF80000454840687C
:1031300090FBF1F043494968081A424948609DF8FC
:103140000D009DF80C1040EA012000B23D4949688D
:1031500008443C494860084640680A2190FBF1F069
:1031600000B2ADF802003748806890FBF1F03549B5
:103170008968081A334988609DF80B009DF80A1089
:1031800040EA012000B22F49896808442D4988602F
:10319000084680680A2190FBF1F000B2ADF8040007
:1031A0002948C07940B101202849087000202649EB
:1031B000C870684601F072F92448007808B300200E
:1031C00022490870002415E02148006830F91400F5
:1031D000002805DA1E48006830F91400404203E078
:1031E0001B48006830F91400142801DA701CC6B2BC
:1031F000601CC4B2062CE7DB022E02DB0120124960
:10320000C87000241AE01249096801EB4401B1F9C1
:1032100006100F4A126832F914208F1807EBD77185
:103220003DF91420A2EB6100FDF7EEF98046FDF7B1
:1032300017FA00B225F81400601CC4B2032CE2DBBC
:10324000BDE8FF817C1C0020D61C002084010020EA
:103250008001002000BFFEE710B50F20174908705D
:103260000320487002221648FFF752FD0622134938
:103270001348001DFFF74CFD0A2210491048083082
:10328000FFF746FD00200F490860002408E00B48C6
:10329000005D0C49096808440A490860601CC4B212
:1032A0000E2CF4DB07480068FF21B0FBF1F201FBB4
:1032B0001200024988730F2010BD0000E41D002099
:1032C000D81D0020DC02002010B53F2058490870AE
:1032D000012048705749B1F90000FDF795F95649AA
:1032E00008605449B1F90200FDF78EF953490860AE
:1032F0005049B1F90400FDF787F9514908604D497B
:10330000B1F93400FDF780F94E4908604949B1F937
:103310003600FDF779F94C4908604649B1F93800A3
:10332000FDF772F9494908604949B1F90000FDF714
:103330006BF9484908604649B1F90200FDF764F9A4
:10334000454908604249B1F90400FDF75DF9434978
:10335000086000204249086042490860424908600C
:10336000022233493448FFF7D3FC06223049334860
:10337000FFF7CEFC0A222E493148FFF7C9FC0E2286
:103380002B493048FFF7C4FC122229492E48FFF789
:10339000BFFC162226492D48FFF7BAFC1A22244901
:1033A0002C48FFF7B5FC1E2221492B48FFF7B0FC43
:1033B00022221F492948FFF7ABFC26221C49284836
:1033C000FFF7A6FC2A221A492648FFF7A1FC2E2265
:1033D00017492548FFF79CFC322215492348FFF77F
:1033E00097FC362212492248FFF792FC3A221049F4
:1033F0002048FFF78DFC00201F490860002408E0EA
:103400000B48005D1C49096808441B490860601CA2
:10341000C4B23E2CF4DB18480068FF21B0FBF1F287
:1034200001FB1200024981F83E003F2010BD000060
:10343000E41D0020081C0020E0020020E40200201F
:10344000E8020020EC020020F0020020F40200203C
:10345000B0020020F8020020FC020020000300203F
:1034600004030020080300200C03002010030020A8
:103470001403002018030020DC02002010B51D20DA
:10348000414908700220487002224048FFF740FC82
:1034900006223D493E48FFF73BFC0A223A493D4897
:1034A000FFF736FC0E2238493B48FFF731FC122269
:1034B00035493A48FFF72CFC39480088000A324960
:1034C000887537480078C87536480088000A08763D
:1034D0003448007848763448007888760020C876EA
:1034E0003248007828B10846C07E40F00100C87616
:1034F00005E02548C07E00F0FE002349C8762C4830
:103500000078572806D12048C07E40F002001E49AE
:10351000C87609E026480078452805D11A48C07EBB
:1035200000F0FD001849C876224800784E2806D1E0
:103530001548C07E40F004001349C87609E01D48D4
:103540000078532805D11048C07E00F0FB000E49DA
:10355000C876002018490860002408E00A48005D89
:1035600015490968084414490860601CC4B21C2C41
:10357000F4DB11480068FF21B0FBF1F201FB1200FF
:10358000014908771D2010BDE41D00201C03002008
:103590002003002024030020280300202C03002007
:1035A0003403002038030020300300203E030020B5
:1035B0003C0300203D030020DC02002070B573496D
:1035C000886A7349FCF728FE0546FDF749F87149FA
:1035D00008606E49C86A6E49FCF71EFE0546FDF795
:1035E0003FF86D4908606949086B6949FCF714FEAA
:1035F0000546FDF735F8694908606449086F644974
:10360000FCF70AFE0546FDF72BF8654908605F499F
:10361000486F5F49FCF700FE0546FDF721F8614958
:1036200008605A49886F5A49FCF7F6FD0546FDF7D0
:1036300017F85D4908605549D1F8B8005449FCF7BE
:10364000EBFD0546FDF70CF8584908604F49D1F8E5
:10365000BC004F49FCF7E0FD0546FDF701F8544971
:1036600008604A49D1F8C0004949FCF7D5FD054634
:10367000FCF7F6FF4F49086021204F4908700520EC
:10368000487044480088000A887042480078C87032
:1036900041480088000A08713F48007848713F4857
:1036A0000088000A88713D480078C8713C4800884D
:1036B000000A08723A48007848723A480088000ABE
:1036C000887238480078C87237480088000A087342
:1036D00035480078487335480088000A88733348B5
:1036E0000078C87332480088000A087430480078AF
:1036F000487430480088000A88742E480078C874DE
:103700002E480088000A08752C48007848752C4817
:103710000088000A88752A480078C87529480088FA
:10372000000A087627480078487627480088000A6B
:10373000887625480078C87624480088000A0877EB
:1037400022480078487722480088000A8877204875
:103750000078C87700201F490860002408E0164858
:10376000005D1C49096808441A490860601CC4B21D
:10377000202CF4DB17480068FF21B0FBF1F201FBBD
:1037800012000D4981F82000212070BD641E002028
:103790000000C842400300204403002048030020EA
:1037A0004C03002050030020540300205803002045
:1037B0005C03002060030020E41D0020640300205F
:1037C000680300206C0300207003002074030020B5
:1037D00078030020DC02002015202F4A10700420FE
:1037E00050702E480088000A90702C480078D070E5
:1037F0002A484088000A107128488078507127486C
:103800008088000A907125480079D0712348C088CB
:10381000000A107221488079507220480088000AFE
:1038200090721E480078D0721C480088000A1073FD
:103830001A480078507319480088000A9073174896
:103840000078D07315480088000A10741348007877
:10385000507412480088000A907410480078D074A0
:1038600000200F4A1060002108E00B48405C0C4A21
:10387000126810440A4A1060481CC1B21429F4DBD3
:1038800007480068FF22B0FBF2F302FB1300024A74
:103890001075152070470000E41D0020881C0020D2
:1038A000DC02002010B505F00FFC10BD10B505F0CE
:1038B00071FC10BD10B505F007FC10BD10B505F08A
:1038C00069FC10BD00B54FF480600C49086000F041
:1038D0004BFA4FF400600949086000F045FA4FF4D4
:1038E00080600649091F086000F03EFA4FF48060CE
:1038F0000249086000F038FA00BD0000140C0140D5
:1039000021B1028842F48062028004E002884FF60E
:10391000FF331A400280704721B1028842F0010251
:10392000028004E002884FF6FE731A40028070475E
:1039300010B504460B48844209D10121480501F025
:10394000D1FE00214FF4001001F0CCFE08E001216F
:10395000880501F0C7FE00214FF4800001F0C2FE8F
:1039600010BD00000054004021B1028842F4807272
:10397000028004E002884FF6FF631A40028070471D
:1039800021B1028842F40072028004E002884FF6FE
:10399000FF531A400280704708B50121082001F04A
:1039A000B1FE4FF48060ADF8000003208DF80200F6
:1039B00014208DF8030069460A48FFF7B7F94FF461
:1039C0000060ADF8000003208DF8020014208DF88F
:1039D000030069460348FFF7A9F940F6FF7005F0B8
:1039E00026FA08BD000C01401AB183880B4383807E
:1039F00002E083888B438380704700002DE9F04309
:103A000085B004460D460026B1460427DFF8CC8079
:103A1000A6884FF6C0700640684601F093FEDDF8B8
:103A200008802F48B8FBF0F01FFA80F946EA090633
:103A3000A68020884FF6FE71084020800026294984
:103A4000286888420CD828684000B8FBF0F087B29C
:103A5000042F00DA04273E4309F10100208427E007
:103A6000E8884BF6FF71884206D1286800EB4000D9
:103A7000B8FBF0F087B209E0286800EBC00101EB69
:103A80000010B8FBF0F087B247F48047C7F30B0093
:103A900008B947F0010747F4004006434FF4967019
:103AA00009FB00F04FF47A7190FBF1F0401C208488
:103AB000A683208840F00100208026884FF6F5304C
:103AC0000640A8886989084306432680A889298971
:103AD0000843208105B0BDE8F083000000127A00A1
:103AE00040420F00A086010000B54FF480600C49F1
:103AF000086000F039F94FF400600949091F0860B7
:103B000000F032F94FF480600549091F086000F0A9
:103B10002BF94FF480600249086000F025F900BDE0
:103B2000140C014000B5082100200A02124B1A6053
:103B300016E04206100E4FF480620F4B1B1D1A60F8
:103B400000F012F94FF480620B4B1A6000F00CF990
:103B5000094A083A126802F400620AB140F0010012
:103B60000A00A1F10103D9B2E3D14FF48062024B04
:103B70001B1D1A6000BD0000100C01402DE9F04132
:103B800007460E461546984600F062F8384600F0A3
:103B900031F800F0BBF8304600F02CF800F0B6F831
:103BA00000F056F8791CC8B200F024F800F0AEF826
:103BB00000240DE0FFF7B6FF08F80400681EA042DD
:103BC00002D1FFF791FF01E0FFF77CFE601CC4B259
:103BD000AC42EFDB00F06CF800F0C6F8BDE8F08115
:103BE00012B141F0010102E04FF6FE73194001826B
:103BF0007047000000B508211DE04FF48062134BB0
:103C00001A6000F0B1F800F080022AB14FF40062AF
:103C10000E4B1B1F1A6003E04FF400620B4B1A603F
:103C20004206100E00F0A0F84FF48062074B1B1FF5
:103C30001A6000F099F80A00A1F10103D9B2DCD1B1
:103C40004FF48062014B1A6000BD0000140C01406B
:103C500000B54FF40060154908604010086000F09E
:103C600083F812480838006808B9012000E00020F5
:103C700000F4006008B1002000BD4FF400600B4963
:103C8000091D086000F070F808480838006800F462
:103C9000006008B10020EFE74FF400600349091D00
:103CA000086000F061F80120E6E70000100C014018
:103CB00000B54FF480600C49086000F055F84FF4EF
:103CC00000600949086000F04FF84FF48060064931
:103CD000091F086000F048F84FF400600249091F0E
:103CE000086000F041F800BD140C014041F2883139
:103CF0000160002181804BF6FF71C18000210181AC
:103D000041814FF4804181817047000000B54FF43C
:103D100080601449086000F027F84FF400601149F2
:103D2000091F086000F020F84FF480600D49091F5A
:103D3000086000F019F80B480C38006800F40060C7
:103D400038B14FF480600749086000F00DF800209A
:103D500000BD4FF480600349086000F005F80120C1
:103D6000F6E70000140C014000BF70472DE9FF5F2B
:103D700088B092469946DDF85CB0ABF1010004B220
:103D800008E0601E0AEBC00103C90AEBC40203C2CB
:103D9000601E04B2002CF4DCDDE90801CAE9000170
:103DA00000252E46002418E0169800EBC40003C836
:103DB000CDE902010AEBC40003C8CDE90001DDE949
:103DC0000223FCF740FB2A463346CDE90401FCF709
:103DD00093FA05460E46601C04B25C45E4DB199874
:103DE000401E04B208E0601E09EBC00103C909EBE4
:103DF000C40203C2601E04B2002CF4DC0027B846E3
:103E0000012418E0189800EBC40103C9CDE90201B0
:103E100009EBC40003C8CDE90001DDE90223FCF78A
:103E200012FB3A464346CDE90401FCF765FA074622
:103E30008846601C04B219988442E3DB3A46434644
:103E400028463146FCF7F9FAC9E90001D9E9000131
:103E5000CDE90601DDE906010CB0BDE8F09F0000E8
:103E600010B518480068047A022C01D0042C05D142
:103E7000FDF7A4FF13480068047A1CE0062C19D152
:103E800010480068407805280ED10E480068007878
:103E900000F07F0040B90B490968C87802F02EF89D
:103EA00009490968086A804708490968886880479D
:103EB000082400E00824034909680C7201F0E8F9BD
:103EC00010BD00001C000020280000202000002061
:103ED00010B5482004F0BEFF00F0AAFE04F006FF73
:103EE000FCF7F0FD00F042FFFFF756FD00F034F95B
:103EF00003F0EEFB02F092FF01F0B0F901F0ECF8F4
:103F000000F0CEFC00F062F9FEF7A8FEFEF752FBCF
:103F100010BD000070B5042600240120FEF700FB50
:103F20000446AB2C06D1124800EBC42011490860AE
:103F3000AB2070BD0E4800EBC4200E490860601C29
:103F40000B49891E01EBC0250CE00A480068006897
:103F5000401C10B904263046EBE706480068001DF7
:103F60000449086003480068A842EED38020E0E7D7
:103F7000000001083801002010B57521D02002F0A2
:103F800091F904460CB9002010BD00226B21D0200D
:103F900002F0B0F907221921D02002F0ABF9032278
:103FA0001A21D02002F0A6F910221B21D02002F005
:103FB000A1F909221C21D02002F09CF90120E3E79D
:103FC00010B50A213C2002F06DF904460CB900201E
:103FD00010BD702200213C2002F08CF9202201212A
:103FE0003C2002F087F9002202213C2002F082F9F5
:103FF000642004F01CFF0120EAE730B50B460021E5
:1040000000BF16E00A24B4EB107F05D9302404EB7E
:10401000107403F8114005E0412404EB10740A3CCD
:1040200003F81140000100254C00641C1D554C1C78
:10403000E1B29142E6DB30BD10B51548007800F0E2
:10404000010020B101211348FEF74DFF03E00121DB
:104050001048FEF74AFF0E480078C0F3400020B138
:1040600002210C48FEF73FFF03E002210948FEF75A
:104070003CFF07480078C0F3800020B104210548C8
:10408000FEF731FF03E004210248FEF72EFF10BDCA
:104090002C0100200014014010B52D48007807289D
:1040A00051D2DFE800F00422405044484C00284838
:1040B0004088401C80B226494880782801DB0020D7
:1040C0004880234840880A2807DB21484088142874
:1040D00007DD1F4840881E2803DA06201D490870A6
:1040E00002E000201B4908702DE019484088401C60
:1040F00080B2174948803C2801DB002048801448E2
:104100004088142803DC0120124908700AE0104896
:104110004088282803DC02200E49087002E00420B1
:104120000C4908700FE004200A4908700BE00120D8
:104130000849087007E002200649087003E00420DF
:104140000449087000BF00BFFFF776FF10BD0000F4
:10415000280100202C01002008B50121202001F0B9
:10416000D1FA0121402001F0CDFA0121084601F0E9
:10417000C9FA01211148FEF765FE01211048FEF73A
:1041800061FE0720ADF8000010208DF80300032029
:104190008DF8020069460B48FEF7C8FD0721094863
:1041A000FEF7A3FE7820ADF8000069460648FEF74A
:1041B000BDFD78210448FEF798FE08BD00043000DC
:1041C00000023000001401400018014010B5072122
:1041D0001948FEF788FE4FF4617004F028FE0721AD
:1041E0001548FEF782FE4FF47A5004F020FE0721B6
:1041F0001148FEF778FE4FF4617004F018FE0721B5
:104200000D48FEF772FE4FF47A5004F010FE0721BD
:104210000948FEF768FE4FF4617004F008FE0721BC
:104220000548FEF762FE4FF47A5004F000FE0721C5
:104230000148FEF758FE10BD001401402DE9F0477B
:1042400004460D46164631462846FBF7E5FF8046F4
:1042500031464FF07E50FBF7D9FF81462146FBF7F0
:10426000DBFF07464146FBF77FFFBDE8F087000014
:1042700010B500F0C7F85C4840785B49097840EA1F
:1042800001205A49098C401A00B258490880564802
:10429000C0785549897840EA01215448408C081A71
:1042A00000B252494880504840794F49097940EA64
:1042B000012000B24D4988804B48407A4A49097A2A
:1042C00040EA012000B2494988864748C07A4649F9
:1042D000897A40EA012001B24448C1864248407BC5
:1042E0004149097B40EA012001B24048018701466B
:1042F000B1F93420B1F95410501AFCF785F93B4953
:10430000C865B1F93620B1F95610501AFCF77CF99E
:104310000146364801660146B1F93820B1F9581016
:10432000501AFCF771F901463048416630488079EF
:10433000002857D02F48007880B900202B490884E6
:1043400000212A484184818400202B4908602B49A0
:1043500008602B4908600120264908702348B0F9FD
:104360000000254909680844234908601F48B0F93E
:104370000200224909680844204908601B48B0F936
:1043800004001F49096808441D490860194800785D
:10439000C82822D1184800681649097890FBF1F026
:1043A00000B212490884154800681249097890FB48
:1043B000F1F001B20D484184114800680D490978B7
:1043C00090FBF1F001B2094881840020094908708E
:1043D00007498871FEF784FA10BD06480078401C32
:1043E0000449087000BFF7E7F81B0020081C0020F4
:1043F000D61C00207C0100207001002074010020E8
:104400007801002010B53B21D02001F04BFF22495C
:1044100008703C21D02001F045FF1F4948703D2124
:10442000D02001F03FFF1C4988703E21D02001F0D0
:1044300039FF1949C8703F21D02001F033FF1649D8
:1044400008714021D02001F02DFF1349487143210C
:10445000D02001F027FF104908724421D02001F03C
:1044600021FF0D4948724521D02001F01BFF0A4968
:1044700088724621D02001F015FF0749C8724721F4
:10448000D02001F00FFF044908734821D02001F02B
:1044900009FF0149487310BDF81B00202DE9FF5F9B
:1044A00081469448007898B100209249087092495A
:1044B00008609249086092490860002406E00020E4
:1044C0009049096821F81400601CC4B2062CF6DB80
:1044D000002421E08B48006830F9140039F91410E9
:1044E000884206DD39F814008649096821F814006D
:1044F00010E08448006800EB4400B0F9060039F988
:104500001410884206DA39F814007E49096801EB74
:104510004401C880601CC4B2032CDBDB7A48C0793C
:10452000012847D1794908690021FCF745F904D2EF
:104530007648006980F0004001E074480069054653
:104540007349FCF743F935D27049486EFCF7EDF832
:10455000704A714BCDE90001FBF775FF07464FF03C
:1045600060426E4BFBF76FFF05460E4662480068DF
:10457000FCF7DBF882462A463346FBF7BDFECDE961
:104580000201FCF7FDF85C49086000215A48006808
:10459000FCF712F904D25848006880F0004001E0AE
:1045A0005548006805465E49FCF710F902D2022022
:1045B0005549C8715448C079022847D15349886881
:1045C0000021FCF7F9F804D25048806880F00040E0
:1045D00001E04E48806805464D49FCF7F7F835D2B2
:1045E0004A49C86DFCF7A1F807464A4A4A4BFBF70F
:1045F0002AFF05464FF06042484BFBF724FF8246F6
:104600008B463F480068FCF790F852465B46CDE980
:104610000001FBF771FECDE90201FCF7B1F8384962
:104620000860002136480068FCF7C6F804D2344818
:10463000006880F0004001E03148006805463849D4
:10464000FCF7C4F802D203202F49C8712E48C07964
:1046500003284CD12D49C8680021FCF7ADF804D2DD
:104660002A48C06880F0004001E02848C06805463C
:104670002749FCF7ABF83AD22449086EFCF755F805
:104680000746244A244BFBF7DEFE4FF06042234BE3
:10469000CDE90001FBF7D7FE05460E461748006836
:1046A000FCF743F882462A463346FBF725FECDE960
:1046B0000201FCF765F81149086000210F48006805
:1046C000FCF77AF804D20D48006880F0004001E061
:1046D0000A48006805461249FCF778F807D201201D
:1046E0000449087000200849C871FEF7ABF9BDE81D
:1046F000FF9F000085010020900100208C01002018
:104700008801002080010020D61C0020081C002009
:1047100000409C4530689DC8FE3F9F3F4D62603F12
:104720000000B44300BFFEE72DE9F04F8BB04149D4
:10473000886CFBF795FF04B23E49D1F89000FBF777
:104740008FFF0FFA80F93B48D0F8D80080F0004581
:104750002846FBF785FF0FFA80FA3748B0F90C00BE
:10476000B0F5966F51DD35490868FBF7DEFF074667
:10477000334A344BFBF7D9FE054604F0F7FACDE98E
:1047800006012E494868FBF7D0FF05462C4A2D4B01
:10479000FBF7CBFECDE9000104F0E8FACDE9020118
:1047A0002549B1F90C10A1F57A70FBF73BFF0746DC
:1047B000DDE90223FBF7B9FECDE90401DDE90623BB
:1047C000FBF7B3FECDE90801FBF777FF8346ABEBC0
:1047D0000400A0EB0900504400B21B490880ABEB79
:1047E00004004844A0EB0A0000B248800BEB040030
:1047F0004844504400B288800BEB0400A0EB090051
:10480000A0EB0A0000B2C88007E0D2200E49C880A1
:1048100088804880088001F03FF90C48007918B181
:10482000094804F029FF01E004F05CFF0BB0BDE88B
:10483000F08F0000641E0020881C0020D81D00207E
:1048400031B3CF6394A94C4084030020D61C0020D0
:10485000704770471CB510A103C9CDE900010522BE
:104860006946302000F0CCF805226946102000F09F
:10487000A5F8002406E01DF80400A52800D003E0F8
:10488000601CC4B2052CF6DB00BF052C01D0002053
:104890001CBD0120FCE70000A5A5A5A5A500000002
:1048A00010B508210548FEF71EFB4FF400410448EF
:1048B000FEF71BFB01F014F910BD000000140140CD
:1048C0000008014010B5044608213948FEF70BFBEB
:1048D00005223849302000F093F8052236492A2075
:1048E00000F08EF80121212000F0ACF801212220F7
:1048F00000F0A8F81A21242000F0A4F8282125208F
:1049000000F0A0F80F21262000F09CF8012C08D11F
:104910002021312000F096F80F21202000F092F89D
:1049200041E0022C08D12021312000F08BF80E212B
:10493000202000F087F836E0032C1AD1FF21E12077
:1049400000F080F8FF21E22000F07CF80F21202009
:1049500000F078F8502001F03DF9732001F03AF9A9
:1049600001213C2000F06EF807213D2000F06AF89C
:1049700019E00E21202000F065F8FF21E12000F071
:1049800061F8FF21E22000F05DF8502001F022F9EB
:10499000732001F01FF901213C2000F053F807219A
:1049A0003D2000F04FF808210148FEF79EFA10BDA7
:1049B0000014014094010020990100202DE9F041EC
:1049C00007460D4616464FF400410C48FEF78BFA99
:1049D000384601F0FFF88046002405E0FF2001F092
:1049E000F9F82855601CC4B2B442F7DB4FF400411B
:1049F0000248FEF77AFA4046BDE8F081000801401F
:104A00002DE9F04107460C4615464FF400410C488D
:104A1000FEF769FA384601F0DDF88046002605E029
:104A200014F8010B01F0D6F8701CC6B2AE42F7DBE9
:104A30004FF400410248FEF758FA4046BDE8F081C5
:104A40000008014070B505460C464FF40041084887
:104A5000FEF749FA284601F0BDF80646204601F067
:104A6000B9F84FF400410248FEF73FFA304670BDF6
:104A70000008014070B5002100230F22C47804B360
:104A8000154C246804F4E064C4F5E064210AC1F123
:104A90000403CA40447804FA03F1847814402143A3
:104AA00009010E4C0678A155047804F01F05012475
:104AB000AC4005786D11AD0005F1E025C5F8004169
:104AC00009E0047804F01F050124AC40044D067889
:104AD000761145F8264070BD0CED00E000E400E0E2
:104AE00080E100E002490143024A11607047000082
:104AF0000000FA050CED00E070B50226474800689A
:104B0000447846480068007800F07F00002844D1CF
:104B1000092C03D101F086FD06465FE0052C14D177
:104B20003E480068C0787F280BDC3C4800688078ED
:104B300038B93A480068808818B938480068807ADF
:104B400008B1082565E0002648E0032C0ED1334863
:104B50000068C078012807D130480068808818B9FB
:104B600001F084FD064639E0022637E0012C35D1FC
:104B70002A480068C07801280DD12848006880883C
:104B800048B926480068407A00F0200018B101F0CA
:104B9000D5FB064622E0022620E020480068007887
:104BA00000F07F00012805D10B2C17D101F0DAFDB0
:104BB000064613E019480068007800F07F000228DC
:104BC0000BD1012C03D101F0B9FB064606E0032C02
:104BD00004D101F05FFD064600E002264EB1E0B2CE
:104BE0000F4A1268516988470646032E01D10925EC
:104BF0000FE00EB108250CE00625002109480068E9
:104C000080B2801C084A42F8101030200749088002
:104C100000BF024909680D7270BD00001C00002031
:104C200020000020505C0040006000402E0000206A
:104C300008B54FF4A060FFF755FF32208DF8000053
:104C400002208DF8010000208DF8020001208DF86F
:104C500003006846FFF70EFF1C208DF800000020BF
:104C60008DF8010001208DF802008DF803006846E0
:104C7000FFF700FF1D208DF8000000208DF80100D7
:104C800002208DF8020001208DF803006846FFF72E
:104C9000F1FE08BD2DE9F05F05468B461646344609
:104CA000002C00DA64424FF47A7094FBF0F0C7B243
:104CB0004FF47A7094FBF0F100FB1140642190FBFB
:104CC000F1F000F0FF08642094FBF0F100FB1140CC
:104CD0000A2190FBF1F000F0FF090A2094FBF0F1AB
:104CE00000FB114000F0FF0A3A465946284600F002
:104CF000C9F8691CC8B24246594600F0C3F8A91C5D
:104D0000C8B24A46594600F0BDF8E91CC8B252463E
:104D1000594600F0B7F8BDE8F09F07E040F2375180
:104D200000BF0A00A1F10101FBD1401E0028F5D10E
:104D3000704770B50646002415E004F1B001C8B212
:104D400000F034F9012000F031F9102000F02EF9C4
:104D5000002504E0304600F055F9681CC5B2802DEE
:104D6000F8DB601CC4B2082CE7DB70BD08B501217C
:104D7000102000F0C7FC0F20ADF8000003208DF8D4
:104D8000020010208DF8030069463D48FDF7CEFF74
:104D900008213B48FEF7A9F802213948FEF7A3F89D
:104DA0003220FFF7BAFF02213548FEF79EF80021B6
:104DB000AE2000F0CBF80021D52000F0C7F800218C
:104DC000802000F0C3F80021A82000F0BFF80021E7
:104DD0003F2000F0BBF80021D32000F0B7F80021FD
:104DE000084600F0B3F80021402000F0AFF80021A1
:104DF0008D2000F0ABF80021142000F0A7F800216E
:104E0000202000F0A3F80021022000F09FF80021EC
:104E1000A12000F09BF80021C82000F097F80021A5
:104E2000DA2000F093F80021122000F08FF8002122
:104E3000812000F08BF80021EF2000F087F800219E
:104E4000D92000F083F80021F12000F07FF8002144
:104E5000DB2000F07BF80021402000F077F80021F3
:104E6000A42000F073F80021A62000F06FF80021C4
:104E7000AF2000F06BF80020FFF75BFF08BD0000DB
:104E8000001001402DE9F04105460F46164600BFCF
:104E900005EB45014906080E394600F045F80024A7
:104EA0000AE006F1100101EB4101054A02EB410164
:104EB000085D00F0A7F8641C062CF2DBBDE8F08169
:104EC000149C02082DE9F0470446884615464FF029
:104ED0000009002600274146204600F025F81CE086
:104EE000E85D203800F0FF097E2C04DD002408F185
:104EF000010000F0FF08002609E009EB4901094A1A
:104F000002EB4101885D00F07DF8701CC6B2062EF0
:104F1000F3DBA01DC4B2781CC7B2E85D0028DFD166
:104F2000BDE8F087149C020870B504460D4605F1F3
:104F3000B001C8B200F03AF8102141EA141000F0B4
:104F400035F804F00F0000F031F870BD70B504467C
:104F50000E4626B101211448FDF7C7FF03E00121E9
:104F60001148FDF7C0FF002517E008210E48FDF7A6
:104F7000BAFF04F0800020B104210B48FDF7B5FF13
:104F800003E004210848FDF7AEFF08210648FDF7BD
:104F9000ACFF6006040E681CC5B2082DE5DB0121DC
:104FA0000148FDF7A2FF70BD0010014070B5044636
:104FB000082501211248FDF796FF08211048FDF74A
:104FC00092FF00BF16E004F0800020B104210C48DD
:104FD000FDF78BFF03E004210948FDF784FF08215A
:104FE0000748FDF782FF00BF08210548FDF77BFF5A
:104FF0006006040E2800A5F10101CDB2E3D170BD19
:105000000010014070B50446082501211348FDF742
:105010006CFF00BF08211148FDF765FF00BF16E0D7
:1050200004F0800020B104210C48FDF75EFF03E08E
:1050300004210A48FDF757FF08210848FDF755FFEE
:1050400000BF08210548FDF74EFF6006040E28004A
:10505000A5F10101CDB2E3D170BD00000010014007
:1050600010B511480068047A022C01D0042C01D13B
:10507000082412E0032C01D0052C05D1FCF7FEFE1C
:1050800009480068047A08E0072C05D10749096837
:10509000C8688047082400E00824034909680C72A6
:1050A00000F0F6F810BD00001C00002020000020D9
:1050B000F0B5561C7510074E06EB41042B4605E073
:1050C00034F8047B20F8017B401C5B1E002BF7D1D9
:1050D000F0BD00000060004000B587B00121032052
:1050E00000F0F0FA01210C2000F00CFB0F20ADF8CD
:1050F000180028208DF81B0006A95548FDF716FE5C
:10510000C020ADF8180006A95148FDF70FFE012098
:10511000ADF8180006A94F48FDF708FE4FF6FF70DE
:10512000ADF810004720ADF80C000020ADF81200DB
:10513000ADF80E0003A94FF0804002F0F7F903A983
:10514000454802F0F3F90020ADF80000ADF8020088
:105150000120ADF804000020ADF80600ADF808000D
:1051600069464FF0804001F0CDFF69463A4801F0B2
:10517000C9FF0420ADF800000020ADF802000120B6
:10518000ADF804000020ADF80600ADF8080069464F
:105190004FF0804001F0B6FF69462F4801F0B2FFA2
:1051A0000820ADF800000020ADF802000120ADF8A5
:1051B00004000020ADF80600ADF8080069464FF085
:1051C000804001F09FFF6946234801F09BFF0C20BF
:1051D000ADF800000020ADF802000120ADF8040099
:1051E0000020ADF80600ADF8080069464FF0804099
:1051F00001F088FF0121880701F066FE01211648B1
:1052000001F062FE01220221480701F0D1FF0122D4
:105210000421080701F0CCFF01220821C80601F093
:10522000C7FF01221021880601F0C2FF01220221DE
:10523000094801F0BDFF01220421074801F0B8FF31
:1052400001220821044801F0B3FF07B000BD0000AF
:1052500000080140000C01400004004008B5012195
:10526000082000F04FFA4FF47070ADF800001820DD
:105270008DF8030003208DF8020069460248FDF70F
:1052800055FD02F0A5F908BD000C01407047000073
:1052900010B50D4890F82C10002000F069FE0B4866
:1052A0000068007A082805D14002094908801020CA
:1052B0000849088005480068007A092801D10120C2
:1052C00010BD0020FCE700009C0000201C00002016
:1052D0002C0000202E0000202DE9F05F04464FF046
:1052E0007F594FF07C512046FAF796FF82462546BB
:1052F0002E460C48A0EB6606354629465046FAF77E
:105300008BFF83462946FAF787FF80464946FAF71E
:1053100080FF07462946FAF77FFF05462846BDE885
:10532000F09F0000DF59375F2DE9F84F0446002554
:10533000E168E068FAF770FF0090A168A068FAF7EA
:105340006BFF814661686068FAF766FF82462168F4
:105350002068FAF761FF83465146FAF705FF804659
:105360004946FAF701FF07460099FAF7FDFE06469F
:10537000FFF7B2FF054620682946FAF74DFF206087
:1053800060682946FAF748FF6060A0682946FAF786
:1053900043FFA060E0682946FAF73EFFE060BDE801
:1053A000F88F2DE9FF4F87B0044615461E4620684A
:1053B00006906768D4F80880E06805903146059843
:1053C000FAF72AFF294604904046FAF725FF039092
:1053D00087F0004001900899FAF71EFF02900399A8
:1053E000FAF714FF83460499FAF710FF82461499DE
:1053F000FAF712FF81462168FAF7B6FE20603146BF
:105400004046FAF709FF294604900598FAF704FF89
:10541000039008990698FAF7FFFE02900399FAF7AD
:10542000F5FE83460499FAF79FFE82461499FAF72F
:10543000F3FE81466168FAF797FE606031463846B0
:10544000FAF7EAFE294604900698FAF7E5FE03907B
:1054500008990598FAF7E0FE02900399FAF784FE9E
:1054600083460499FAF7D2FE82461499FAF7D4FEDD
:105470008146A168FAF778FEA06031460698FAF7EF
:10548000CBFE294604903846FAF7C6FE039088F012
:10549000004001900899FAF7BFFE02900399FAF7CD
:1054A00063FE83460499FAF75FFE82461499FAF781
:1054B000B3FE8146E168FAF757FEE0600BB0BDE845
:1054C000F08F00002DE9F04F85B004460D46E168ED
:1054D000E068FAF7A1FE0390A168A068FAF79CFEC5
:1054E000029061686068FAF797FE01902168206871
:1054F000FAF792FE00900199FAF736FE8346029978
:10550000FAF784FE82460399FAF780FE0646A16800
:105510006068FAF781FE8346E1682068FAF77CFE4E
:1055200059460390FAF720FE82464FF08041FAF781
:1055300073FE0746A1682068FAF76EFE8346E168AD
:105540006068FAF769FE59460390FAF75FFE8246F3
:105550004FF08041FAF760FE8046E168A068FAF7F4
:105560005BFE834661682068FAF756FE5946039051
:10557000FAF7FAFD82464FF08041FAF74DFE814678
:10558000E168E068FAF748FE0390A168A068FAF7BE
:1055900043FE029061686068FAF73EFE0190216860
:1055A0002068FAF739FE00900199FAF72FFE83463A
:1055B0000299FAF72BFE82460399FAF7D5FD04907B
:1055C000404603F003F880F0004028604846049904
:1055D00003F05EFA68600748C07810B90548407863
:1055E00020B93146384603F053FAA86005B0BDE84B
:1055F000F08F0000D61C00202DE9FE4305460C4626
:10560000A1682068FAF708FE0746E1686068FAF7C3
:1056100003FE80463946FAF7F9FD06464FF0804111
:10562000FAF7FAFD0090E168A068FAF7F5FD074681
:1056300061682068FAF7F0FD80463946FAF794FD74
:1056400006464FF08041FAF7E7FD0190A168A06897
:10565000FAF7E2FD804661686068FAF7DDFD814691
:105660004146FAF781FD07464FF08041FAF7D4FD35
:1056700006464FF07E51FAF7CCFD02900098286064
:10568000019868600298A860BDE8FE83014600208A
:10569000034A506820F440400843506070470000BF
:1056A0000010024029B1064A52690243044B5A6174
:1056B00004E0034A52698243014B5A61704700007B
:1056C0000010024029B1064AD2690243044BDA6154
:1056D00004E0034AD2698243014BDA61704700005B
:1056E0000010024029B1064A12690243044B1A61B4
:1056F00004E0034A12698243014B1A6170470000BB
:105700000010024029B1064A92690243044B9A6193
:1057100004E0034A92698243014B9A61704700009A
:105720000010024029B1064AD2680243044BDA60F5
:1057300004E0034AD2688243014BDA6070470000FC
:105740000010024030B500210022002400232D4D1E
:105750006D6805F00C0121B1042905D0082923D179
:1057600005E0294D056022E0284D05601FE0254D2C
:105770006D6805F47012234D6D6805F480340225C0
:1057800005EB92421CB9224D554305600BE01D4DBF
:105790006D6805F400351DB11B4D5543056002E0F1
:1057A0001A4D5543056002E0174D056000BF00BF6C
:1057B000144D6D6805F0F0010909164D6B5C056824
:1057C000DD4045600F4D6D6805F4E061090A114D3B
:1057D0006B5C4568DD4085600A4D6D6805F460517D
:1057E000C90A0C4D6B5C4568DD40C560054D6D68B0
:1057F00005F44041890B084D6B5CC568B5FBF3F5BA
:10580000056130BD0010024000127A000024F4004F
:1058100000093D0000000020100000200149086040
:1058200070470000D800424230B586B04E4A127828
:10583000521C4D4B1A7000207CE04C4A32F810206C
:10584000B2F52F6F05DC494A32F81020B2F5487FD7
:1058500005DA474A32F81020444B23F81020434B16
:1058600033F810301BB2404C2278D41702EB9474FA
:10587000A410A2EB84043F4D05EBC00525F81430BD
:105880003A4A32F810203A4B23F8102000223A4BC3
:1058900023F8102003AB23F8102046F2A8122DF8AD
:1058A0001020002131E0334A02EBC00232F911200E
:1058B00003AB33F810309A4207DD2E4A02EBC002E8
:1058C00032F8112003AB23F810202A4A02EBC00261
:1058D00032F911203DF810309A4207DA254A02EBDE
:1058E000C00232F8112092B22DF81020214A02EBAA
:1058F000C00232F81120204B33F810301A4412B293
:105900001D4B23F810204A1CD1B20429CBDB03AB7A
:1059100033F810303DF810402344174C34F9104050
:10592000E21A02EBD2735B101BB2134C24F8103056
:10593000421CD0B2062880DB0F4AB2F906200F4B7A
:105940009A80DA810C4AB2F90420DA809A810A4AF4
:10595000B2F900201A801A81074AB2F902205A804F
:105960005A8106B030BD00003C020020D613002052
:10597000E61300209A1C0020CA1C0020881C00206E
:105980000020002112E08010394A32F91120B2F5CE
:10599000966F01DD40F08000354A32F91120B2F5F2
:1059A000E16F01DA40F040004A1CD1B20429EADB81
:1059B000304A1278904209D12F4A1278FA2A08DA2E
:1059C0002D4A1278521C2C4B1A7002E000222A4BEE
:1059D0001A70284A1070284A1278962A2DD1274A20
:1059E00012793AB1234A12785F2A26D10022234B3A
:1059F0001A7122E01F4A12786F2A02D101221F4B2E
:105A00001A711C4A12785E2A02D101221B4B9A712C
:105A1000184A1278962A05D1184A127A12B1012230
:105A2000164BDA71134A1278A52A03D10122134BBF
:105A30001A7202E00022114B1A72104A1279B2B1A6
:105A40000C4A12787F2A0FD10D4A128840F6C413EF
:105A50009A4205DA0A4A1288521C094B1A8006E05B
:105A60000022064B1A7102E00022054B1A80704793
:105A7000881C00203802002039020020D61C00209B
:105A80003A02002010B5FFF77BFF0248006880470C
:105A900010BD00003402002000210448016181652E
:105AA0004163C167C0F8C41070470000641E002045
:105AB00010B50948006805280CD10848016800683D
:105AC000401C064A1060052904D1002011460860D8
:105AD000FDF724F810BD0000200100204C0000203C
