:020000040000FA
:100000003837002045010000F14400004D32000067
:10001000C5430000B9150000077000000000000093
:10002000000000000000000000000000BD580000BB
:10003000ED22000000000000B14E00005D01000054
:100040005F0100005F0100005F0100005F01000030
:100050005F0100005F0100005F0100005F01000020
:100060005F0100005F0100005F0100005F01000010
:100070005F0100005F0100005F0100005F01000000
:100080005F0100005F0100005F0100005F010000F0
:10009000AD6F00005F0100005F0100005F01000024
:1000A0005F0100005F0100005F0100005F010000D0
:1000B000C96400000D6700005F010000A538000062
:1000C0009D380000B5380000AD3800005F01000029
:1000D0005F0100005F0100005F0100005F010000A0
:1000E0005F0100005F0100005F0100005F01000090
:1000F0005F0100005F0100005F0100005F01000080
:100100005F0100005F0100005F0100005F0100006F
:100110005F0100005F0100005F0100005F0100005F
:100120005F0100005F0100005F0100005F0100004F
:10013000DFF80CD000F022FC00480047118E0000D0
:10014000383700200648804706480047FEE7FEE7AC
:10015000FEE7FEE7FEE7FEE7FEE7FEE7FEE7FEE777
:100160002962000031010000F0B480EA0102D40FDE
:100170004200B2EB410F02D20246084611464A0045
:1001800042D0C30DDDB2C1F3C752AD1A202D35DA0E
:10019000C1F3160141F4000204B15242C5F1200638
:1001A00002FA06F12A411044B3EBD05F23D0C4B168
:1001B000012DA0EBC35009DCF0BC4FF0004202EA75
:1001C000C352DBB200F5000000F040BB400000F17C
:1001D000807000EBC350A0F1807040EAD1704900FC
:1001E00009E0490841EAC071A0EBC35000F50000E6
:1001F000400800EBC350F0BC00F01FBB614201227D
:1002000002EB4101001BF6E7F0BC704781F00041B2
:10021000AAE780F00040A7E780EA010210B502F0EB
:100220000043400022D04A001FD0010E01EB1261B2
:10023000C0F35600C2F3560240F4000042F400023C
:10024000A0FB022000047F39140400D0401C50EAB7
:10025000124001D44000491EC2B20C0604EBD0107B
:10026000401C4008802A02D003E0002010BD20F08E
:100270000100002900DA0020184310BD30B480EAE4
:10028000010202F0004530F0004221F0004013D09E
:1002900090B1C30DD40DC2F31601C0F31600E41AD9
:1002A00041F4000140F400027D34914201D3641C0A
:1002B00000E04900002C02DA30BC002070474FF407
:1002C00000000023914201D3891A034340084FEAFA
:1002D0004101F7D151B1914202D14FF0004105E007
:1002E00002D24FF0010101E06FF0010103EBC450B5
:1002F000284430BC00F0A1BA2DE9FE4F804681EAC7
:100300000300C00F0C46009021F0004123F000458F
:10031000B8EB0200A94105D24046214690461C4652
:100320000B46024623F00040104347D0270DC7F389
:100330000A00C3F30A510290401A019040286BDA78
:10034000C3F3130040F4801B0098924620B10023B1
:10035000D2EB030A63EB0B0B01985946C0F1400244
:10036000504600F039FA06460D4650465946019A65
:1003700000F051FA10EB08006141002487EA1152A5
:1003800084EAE7731A4340D0009A62B3019A012AC3
:100390004FEA075215DC001B61EB02014FF00042EF
:1003A00002EA0752CDE90042001C41F580113246B5
:1003B0002B4600F094FA03B0BDE8F08F404621468A
:1003C000F9E7001B61EB0201001C41F580130018E6
:1003D0005B412018A2F5001747EB030140EAD570F6
:1003E000B6196D4111E06D084FEA360645EAC07551
:1003F0004FEA0752001B61EB0201001C41F580111E
:1004000049084FEA30000019514132462B4603B0EB
:10041000BDE8F04F00F054BA0098012240000023DC
:10042000D0EB020263EBE073009821464FEAE074E0
:10043000B8EB000061EB0401E9E783F000435BE700
:1004400081F0004158E72DE9FE4F81EA030404F0F2
:10045000004421F0004100944FF0000B23F00043D2
:1004600050EA01045ED052EA03045BD0C3F30A549D
:10047000C1F30A552C44A4F2F3340194A0FB0254B6
:10048000C1F3130141F48011C3F3130343F4801348
:1004900001FB024400FB034E840A970A44EA81549C
:1004A00047EA8357A4FB076802958D0A05FB078579
:1004B0004FEA932C04FB0C542705029D4FEA065883
:1004C00047EA1637B5EB08056EEB070C870E920E60
:1004D00047EA811742EA8312A7FB0201B6EB0B0140
:1004E00064EB00042B0D43EA0C335E1844EB1C5004
:1004F000DA465146E7FB0201C5F313044FEA0B331A
:1005000043EA14534FEA0432019C43EA0603A4F180
:100510000C040294009CCDE900B400F0E0F903B0B3
:10052000BDE8F08F00200146F9E72DE9F04D81EAA2
:10053000030404F0004B21F0004514464FF0000A7C
:1005400023F0004150EA050220D054EA01021DD0F8
:10055000C5F30A570246C5F31303C1F31300C1F3F1
:100560000A5640F4801543F48013A7EB0608101BCD
:10057000D64608F2FD3873EB050002D308F10108F6
:1005800001E092185B41B8F1000F03DA0020014648
:10059000BDE8F08D00204FF48011064684460EE041
:1005A000171B73EB050705D3121B63EB050306430B
:1005B0004CEA010C49084FEA300092185B4150EABE
:1005C0000107EDD152EA030012D082EA040083EA67
:1005D0000501084305D0101BAB4106D201220023C0
:1005E00006E000224FF0004302E06FF001025310DA
:1005F0001AEB06004CEB085110EB0A0041EB0B0123
:10060000BDE8F04D00F05CB9C10F80EAE07008442D
:10061000CA079623002100F019B90EB5C10F80EA70
:10062000E0700844CA07002140F233438DE80E0011
:100630000A460B4600F053F903B000BD0EB540F278
:10064000334102910021CDE900110A460B4600F02A
:1006500046F903B000BD00F0004220F00040C10D9B
:10066000C0F3160040F400007F2901DA0020704733
:10067000962903DCC1F19601C84001E09639884013
:10068000002AF4D04042704720F00040C10DC0F372
:10069000160040F400007F2901DA002070479629F7
:1006A00003DCC1F19601C840704796398840704715
:1006B00070B5C1F30A5201F000450024C1F31301E3
:1006C00040F2FF3341F480119A4201DA002070BDFC
:1006D00040F233439A42A2F2334203DC524200F02A
:1006E0008AF800E090402C43F1D0404270BDC1F345
:1006F0000A5210B5C1F3130140F2FF3341F48011E7
:100700009A4201DA002010BD40F233439A42A2F22D
:10071000334203DC524200F06EF810BD904010BD31
:1007200000F0004230F000400AD0C10D01F56071C8
:10073000C0F3160042EA0151C20840071143704756
:10074000002001467047000030B5041E71F100041E
:1007500004DB4FF00044404264EB0101141E73F1CE
:10076000000405DB1C464FF00043524263EB0403D8
:100770008B4208BF824230BD01F0004330B421F00B
:10078000004150EA010206D00A0DA2F56072C1F3E1
:100790001301002A02DC30BC00207047440F44EAF9
:1007A000C104C100E01830BC00EBC25000F045B8F5
:1007B000002801DBC0F10040002901DBC1F100414C
:1007C00081427047002801DBC0F10040002901DBB5
:1007D000C1F1004188427047202A04DB203A00FA28
:1007E00002F1002070479140C2F1200320FA03F388
:1007F000194390407047202A04DB203A21FA02F086
:100800000021704721FA02F3D040C2F1200291404A
:10081000084319467047202A06DBCB17203A41FAD5
:1008200002F043EAE07306E041FA02F3D040C2F17D
:10083000200291400843194670470029A8BF70471D
:10084000401C490008BF20F00100704710B4B0FA06
:1008500080FC00FA0CF050EA010404BF10BC7047A1
:1008600049B1CCF1200421FA04F411FA0CF118BFBB
:10087000012121430843A3EB0C01CB1D4FEA00618A
:100880004FEA102042BF002010BC704700EBC3505D
:1008900010440029A4BF10BC7047401C490008BF89
:1008A00020F0010010BC7047420005D0C0F3C752D1
:1008B0005242914201DC0020704700EBC15070476A
:1008C00010B5141E73F1000408DA401C41F1000158
:1008D00092185B411A4301D120F0010010BD2DE9AF
:1008E000F04D92469B4611B1B1FA81F202E0B0FAA6
:1008F00080F220329046FFF76FFF04460F4640EA31
:100900000A0041EA0B0153465A46084313D01146E8
:1009100053EA010019D0C8F140025046FFF76BFFBF
:1009200005460E46504659464246FFF755FF0843D6
:1009300005D0012004E020463946BDE8F08D0020B6
:10094000054346EAE0762C4337430A986305E40AF8
:10095000A0EB08000022FD0A44EA47540A3002D501
:1009600000200146E9E7010510196941DDE9084564
:1009700000196941BDE8F04DA2E70000064C074DA3
:1009800006E0E06840F0010394E80700984710345F
:10099000AC42F6D3FFF7D0FB689F0000889F0000B1
:1009A000F0B4002802DCF0BC00207047C0F3C7514F
:1009B000C0F3160040F40000CA0701D14000491EF0
:1009C0003F2202EB6105002211464FF4000626FA91
:1009D00001F31344D418844201D8001B1A46400086
:1009E000491C1729F3DD5100814202D24FF0FF313B
:1009F00000E0002102EBC550F0BCFFF71EBF70B550
:100A000021F0004303430CD0C1F30A550024D5EB79
:100A1000040564EB0403D617AD1AB34102DB0020D2
:100A2000014670BD201841EB025170BD70B58C18A5
:100A300010F8015B15F0070301D110F8013B2A11F2
:100A400006D110F8012B03E010F8016B01F8016BDF
:100A50005B1EF9D12B0705D40023521E0DD401F8DB
:100A6000013BFAE710F8013BCB1A921C03E013F8A4
:100A7000015B01F8015B521EF9D5A142D8D30020D9
:100A800070BD000008B50121084604F01DFC0121DD
:100A90004FF4017004F048FC4FF4004004F008FCEF
:100AA0001020ADF8000000208DF8030069460248D0
:100AB00002F00EF908BD00000008014010B5FFF774
:100AC000E1FF00F001F810BD00B591B0334801F02E
:100AD0008DF8334806903348079000200890012095
:100AE000099000200A9080200B9040000C9080001C
:100AF0000D9020200E9000020F900020109006A96B
:100B0000264801F019F90121244801F063F800207A
:100B1000019001208DF808008DF809004FF4602045
:100B200003900020049001208DF8140001A91C48B6
:100B30004C3800F06FF805230122042118484C3886
:100B400000F090F8002116484C3800F043F80121DD
:100B500013484C3800F033F8012111484C3800F0AC
:100B600023F80F484C3800F0D9F800BF0C484C3837
:100B700000F045F80028F9D109484C3800F0DEF8BB
:100B800000BF07484C3800F030F80028F9D10121A7
:100B900003484C3800F0C7F811B000BD080002400F
:100BA0004C2401402E01002021B1826842F0010254
:100BB000826003E0826822F001028260704721B106
:100BC000826842F48072826003E0826822F480725C
:100BD0008260704721B1826842F48012826003E033
:100BE000826822F4801282607047014600208A6881
:100BF00002F004020AB1012000E000207047014623
:100C000000208A6802F008020AB1012000E00020FA
:100C10007047000030B502460020002350680F4C9A
:100C200020400D790C6844EA052420435060906808
:100C30000B4C2040D1E902542C434D7944EA450441
:100C400020439060D06A20F470000C7C641EE4B2F3
:100C5000234340EA0350D06230BD0000FFFEF0FFA6
:100C6000FDF7F1FFF0B504460D4600200021092DE7
:100C700011DDE068A5F10A0606EB4607072606FA2D
:100C800007F18843A5F10A0606EB460603FA06F1CA
:100C90000843E0600CE0206905EB4507072606FAEB
:100CA00007F1884305EB450603FA06F10843206186
:100CB000072A0FDA606B561E06EB86071F2606FA18
:100CC00007F18843561E06EB860605FA06F108432F
:100CD000606322E00D2A0FDA206BD61F06EB860731
:100CE0001F2606FA07F18843D61F06EB860605FA8B
:100CF00006F10843206310E0E06AA2F10D0606EB5E
:100D000086071F2606FA07F18843A2F10D0606EBB7
:100D1000860605FA06F10843E062F0BD816841F0FD
:100D200008018160704721B1826842F4A0028260AC
:100D300003E0826822F4A00282607047816841F07B
:100D400004018160704700002DE9F04F93B0924A92
:100D500011691069FFF760FA07468F4AD168D068B9
:100D6000FFF75AFA80468C4A91689068FFF754FA68
:100D700083464146FFF7F8F906463946FFF7F4F98E
:100D8000054604F0BBF80B90834988680B99FFF780
:100D900043FA11908049C8680B99FFF73DFA10900B
:100DA0007D4908690B99FFF737FA0F907B4905A831
:100DB00004F034FA05AD0598089006980990079854
:100DC0000A9009990F98FFF727FA05460A99109893
:100DD000FFF722FA06462946FFF718FA04460A9951
:100DE0001198FFF719FA054608990F98FFF714FABA
:100DF00006462946FFF70AFA814608991098FFF738
:100E00000BFA054609991198FFF706FA0646294696
:100E1000FFF7FCF9824662492046FFF7FDF90546D7
:100E2000604801682846FFF79FF95E4908605C4901
:100E30004846FFF7F1F905465B4801682846FFF789
:100E400093F95949086056495046FFF7E5F90546B8
:100E5000564801682846FFF787F954490860514809
:100E60000068FFF75DFCCDE90401204606F02EF98D
:100E700083464F49FFF7D0F980462146FFF7CCF96A
:100E80000746FFF74DFC05460E464349C86DFFF780
:100E900047FC0746474A484BFFF7D5FA2A463346F0
:100EA000CDE90001FFF728FACDE90201DDE90423CD
:100EB000FFF722FACDE90601FFF75EFC0E903A48F3
:100EC0000068FFF72DFCCDE90401484606F0FEF866
:100ED00083463749FFF7A0F906464946FFF79CF9D4
:100EE0000546FFF71DFC074688462B49086EFFF7AD
:100EF00017FC05462F4A304BFFF7A5FA3A46434602
:100F0000CDE90001FFF7F8F9CDE90201DDE904239D
:100F1000FFF7F2F9CDE90601FFF72EFC0D9023480B
:100F20000068FFF7FDFBCDE90401504606F0CEF85E
:100F30001F490090FFF770F951460190FFF76CF9D7
:100F40008346FFF7EDFBCDE902011349486EFFF739
:100F5000E7FB184A184BCDE90001FFF774FA074682
:100F6000DDE90223FFF7C8F90546DDE90423FFF7B1
:100F7000C3F9CDE90601FFF7FFFB0C900F48009085
:100F80000648DDE90C320E9904F01DF8034803F021
:100F9000DDFF13B0BDE8F08FE413002098020020BD
:100FA0006F12033ABC020020C0020020C4020020DD
:100FB0003333333FD9999DA0A8C7413F6F12833A7D
:100FC0002DE9F04F8DB000F03BF99148FFF7BCFEE2
:100FD00090498F4804F088F88E494868FFF7A0FBD5
:100FE000064608F00DF80446FFF7C6FB0B9089494A
:100FF0000868FFF795FB064608F002F80446FFF77D
:10100000BBFB0C9083494868FFF78AFB064607F054
:101010001BFA0446FFF7B0FB0A907E490868FFF709
:101020007FFB064607F010FA0446FFF7A5FB099080
:101030007948C07818B17848407800287ED0774940
:10104000B1F90400FFF7E0FA07460A99FFF7E4F860
:1010500006460C99FFF7E0F804467049B1F9020022
:10106000FFF7D2FA81460C99FFF7D6F880460B9924
:10107000FFF7D2F806466949B1F90000FFF7C4FA54
:1010800080460999FFF7C8F807463146FFF76CF824
:1010900005462146FFF7BAF808906049B1F9040007
:1010A000FFF7B2FA06460B99FFF7B6F804465B491C
:1010B000B1F90200FFF7A8FA06460A99FFF7ACF863
:1010C00005462146FFF750F807900898FFF728FBE0
:1010D00082468B460798FFF723FB804652465B46C5
:1010E00006F084FF064601F003F981F00041044652
:1010F000FFF742FB06904A49486EFFF711FB064690
:10110000484A494BFFF79FF9804600224FF0804341
:10111000FFF799F94FF06042444BCDE90001FFF72A
:1011200092F9824601F0E4F8CDE902013949886874
:10113000FFF7F6FA0446DDE9022300E042E0FFF79C
:10114000DBF8CDE90401FFF717FB32498860384925
:101150000698FFF737FB05D22E4988683549FFF717
:1011600027FB0AD333490698FFF722FB19D22949F6
:1011700088682F49FFF726FB13D22F490698FFF7FF
:101180004BF806462348806880F000452B492846E6
:10119000FFF742F804463146FEF7E6FF1D49886036
:1011A0000FE025490698FFF737F804461949886883
:1011B0002249FFF731F805462146FEF7D5FF1549CC
:1011C00088600BE013498868FFF7AAFA064601F029
:1011D0008FF80446FFF7D0FA0E4988600D49486839
:1011E000FFF79EFA064601F083F80446FFF7C4FABB
:1011F000084948600868FFF793FA064601F078F856
:101200000446FFF7B9FA034908600DB0BDE8F08F56
:1012100098020020B0150020B2140020A80200207F
:10122000E4130020D9999DA0A8C7413F4D62503FCB
:101230000000B4420000B4C26F12033BEE7C7F3F5B
:101240002DE9FF4102F0A6FE3C4801F043FF3C4976
:10125000B1F90000FFF7E1F906460F4605203949CC
:10126000394BCDE90030394B394ACDE902103046CF
:10127000394602F007FC0446FFF77EFA30498860E1
:10128000B1F90200FFF7C9F906460F4605202D49BE
:101290002D4BCDE900302D4B28332D4A2832CDE996
:1012A00002103046394602F0EDFB0446FFF764FABF
:1012B0002349C860B1F90400FFF7AFF906460F46AD
:1012C00005202049204BCDE90030204B5033204AE7
:1012D0005032CDE902103046394602F0D3FB0446C5
:1012E000FFF74AFA1649086108461A4AC16D1A48BA
:1012F000006802F035FE1249C8630846154A016EBF
:101300001648006802F02CFE01460D480164114A9F
:10131000416E1348006802F023FE0146084841640C
:10132000C06B0D4908600648006C0C490860044811
:10133000406C0B490860BDE8FF810000A802002056
:10134000E41300207002002048020020381500201D
:10135000C0140020CBA1C53EB0020020B402002082
:10136000B80200202DE9FE4F8D49086CFFF7D8F92F
:1013700082468C4A8C4BFFF766F806460F468B492F
:10138000486AFFF7CDF9804632463B46FFF755F8ED
:101390000446FFF7F1F902908449886A0299FEF742
:1013A0003BFF01468148C1630146486B0299FEF745
:1013B000DBFE01467D48416301467D4A486B7D491D
:1013C00007F090F87949C86A7A49FEF757FF044652
:1013D0007648416B2046FEF71FFF014673480164C3
:1013E0006F4A116CD06CFEF711FF04466F48016B19
:1013F0002046FEF711FF01466C4841640246116C1D
:10140000D06BFEF7B1FE04466848416C2046FEF7FB
:10141000ABFE0146654881646148016CC1640146C8
:10142000C86BFFF77DF982465E4A5F4BFFF70BF80A
:1014300006460F465D49C86EFFF772F98046324690
:101440003B46FEF7FAFF0446FFF796F9019057492D
:10145000086F0199FEF7E0FE01465448C0F8841079
:101460000146C86F0199FEF77FFE01464F48C167EC
:1014700001464F4AC86F4F4907F034F84B49486F4F
:101480004C49FEF7FBFE04464848C16F2046FEF774
:10149000C3FE01464548C0F88810414AD16B906CA4
:1014A000FEF7B4FE04464148816F2046FEF7B4FEC5
:1014B00001463E48C0F88C100246D2F88810D2F897
:1014C0008400FEF751FE04463848D0F88C102046C0
:1014D000FEF74AFE01463548C0F890103048C16B0F
:1014E00081640146486CFFF71BF980462D4A2E4B5C
:1014F000FEF7A9FF04460D462C49D1F8B400FFF7CA
:101500000FF9064622462B46FEF797FF8246FFF765
:1015100033F900902549D1F8B8000099FEF77CFE18
:1015200001462248C0F8CC100146D1F8C400009909
:10153000FEF71AFE01461D48C0F8C41001461C4AB9
:10154000D1F8C4001B4906F0CDFF184AD2F8C410E8
:10155000D2F8BC00FEF760FE01461448C0F8D01077
:101560000F4A516C106DFEF751FE04460F48D0F83B
:10157000C0102046FEF750FE01460C48C0F8D410BB
:101580000246D2F8D410D2F8CC00FEF7EDFD0146A9
:101590000648C0F8D8100248416C0165BDE8FE8FCE
:1015A000E413002030689DC8FE3F9F3F481600208E
:1015B000000020C10000204100BFFEE70146CAB282
:1015C0000B1243EA022070472DE9FF416D48007875
:1015D00002287DDB6C4A11680098FEF717FE06466C
:1015E000684908693146FEF7BFFD664908610A4649
:1015F00051691069FFF7E6F803D262484169016159
:101600000FE06048406980F000455E480169284667
:10161000FFF7D8F805D25B48406980F0004159488F
:101620000161584A11699068FEF7F6FD0546554973
:1016300048683146FEF7F0FD80462946FEF794FDE6
:1016400050494862504A51680198FEF7DFFD07464D
:101650004C49886D3946FEF787FD4A4988650A4638
:10166000D16D906DFFF7AEF803D24648C16D81652C
:101670000FE04448C06D80F000454248816D284627
:10168000FFF7A0F805D23F48C06D80F000413D480B
:1016900081653C4A916D106DFEF7BEFD05463949E6
:1016A000C86C3946FEF7B8FD80462946FEF75CFD5A
:1016B0003449C866344A91680298FEF7A7FD05468A
:1016C0003249FFF77FF80BD32F4A9168029800E068
:1016D0004CE0FEF79BFD05462D49FFF769F834D233
:1016E00000210298FFF76EF814D22749886800217C
:1016F000FFF75EF80ED225490298FEF787FD0546F2
:10170000214881682248FEF781FD80462946FEF780
:101710002BFD044600210298FFF74AF81BD21A4914
:1017200088680021FFF74EF815D218490298FEF795
:101730001BFD0546144881681448FEF767FD804686
:101740002946FEF711FD044605E00F4A916802980C
:10175000FEF75CFD04460B49D1F894002146FEF7E4
:101760005BFD0849C1F8B400002008700548007806
:10177000401C04490870FFF7F5FD02F025FEBDE8A6
:10178000FF81000048160020B015002000003443FF
:10179000000034C308B50020009022E1974800887B
:1017A00000F00F00964908700846007800287CD1A8
:1017B00094480068944908800846008800F030008A
:1017C000924908809048008800F440508E49088073
:1017D0008C4909684BF6BF7201EA020080F40050A0
:1017E00080F0200040F4004141F08001854A116002
:1017F0008248008800F0100090BB1046006848F650
:101800000F7108401146086002F0B6F97D49096879
:101810004BF6BF7201EA02007B49098801F480514E
:1018200009B180F480507849098801F4005109B168
:1018300080F400507549098801F0100109B180F069
:1018400010007249098801F0200109B180F02000E0
:1018500081B241F4004141F080016A4A116008BD43
:10186000FFE76848006880B20090BDF8000000F40F
:101870000060B0B363480068C0F30E0048F68F7193
:1018800008406049086004F029FA5E4909684BF68F
:10189000BF7201EA02005C49098801F4805109B174
:1018A00080F480505849098800E056E001F4005166
:1018B00009B180F400505549098801F0100109B1BF
:1018C00080F010005149098801F0200109B180F031
:1018D000200081B241F4004141F08001494A116089
:1018E000BDE7FFE7BDF8000000F40040002878D015
:1018F00044480068C0F30E0048F68F710840414923
:10190000086003F0EFF93F4909684BF6BF7201EA3E
:1019100002003D49098801F4805109B180F48050EA
:101920003949098801F4005109B180F40050374960
:10193000098801F0100109B180F0100033490988CD
:1019400001F0200109B180F0200081B241F4004192
:1019500041F080012B4A116081E7294800782C4929
:1019600001EB8000D0F8000C80B20090BDF80000C0
:1019700000F40040C0B12248007801EB8000D0F8AC
:10198000000CC0F30E0048F68F7108401C4909781E
:101990001F4A02EB8101C1F8000C19490978491E60
:1019A0001C4A52F821008047BDF8000000F080007A
:1019B000B8B113480078164901EB8000D0F8000C4C
:1019C00048F60F7108400E490978114A02EB81016F
:1019D000C1F8000C0A490978491E0F4A52F8210043
:1019E000804708484430006880B20449088000F409
:1019F000004000287FF4D2AE00BF30E75000002046
:101A000018000020005C00402C0000202E00002068
:101A10000050004070000020540000202DE9F041EB
:101A200000243F48B0F90A0040F2DC51091A3C4852
:101A3000B0F91000C0EBC000143091FBF0F528465F
:101A4000FEF7E2FD374908603548B0F90800A0F21A
:101A5000DC503349B1F91010C1EBC101143190FBD6
:101A6000F1F52846FEF7D0FD2E4948602C48B0F924
:101A70000C00B0F5966F0BDD2B48407901280ED095
:101A8000012029494871294880682649886006E074
:101A900000202549487125488068224988602048EF
:101AA000B0F90E00B0F5C86F05DC1D48B0F90E00A6
:101AB000B0F5AF6F32DA1A48C08940F2DC51081A2B
:101AC00004B22046FEF7A0FD07461949FEF7D6FBF3
:101AD00006461849FEF7A0FB0546124881682846CD
:101AE000FEF742FB0F49886088681349FEF76AFEDB
:101AF00007D20C4988681149FEF788FB09498860BC
:101B00000CE0084988680E49FEF752FE06D20549E6
:101B100088680A49FEF728FB02498860BDE8F08121
:101B20006414002024170020B2140020B0150020F7
:101B300000004843CDCCCC3D000034430000B4430A
:101B4000000034C30B4A02EB8001D1F8001C01F401
:101B5000804171B102EB8001D1F8001C48F68F7210
:101B600011404CF280021143024B03EB8002C2F899
:101B7000001C7047005000400B4A02EB8001D1F876
:101B8000001C01F0400171B102EB8001D1F8001C92
:101B900048F68F72114048F2C0021143024B03EB2A
:101BA0008002C2F8001C704700500040084A02EB57
:101BB0008001D1F8001C48F68F62114048F2800283
:101BC0001143034B03EB8002C2F8001C7047000076
:101BD0000050004021B1026842F00102026004E0BE
:101BE00002684FF6FE731A400260704701684FF6B4
:101BF000FE72114001600021016041608160C1609E
:101C00004B49884208D14A490839496841F00F01D7
:101C1000474A083A51608AE045491431884208D160
:101C200043490839496841F0F001414A083A516096
:101C30007DE03F492831884208D13D49083949684B
:101C400041F470613A4A083A516070E038493C31D9
:101C5000884208D136490839496841F47041344A0C
:101C6000083A516063E032495031884208D1304926
:101C70000839496841F470212D4A083A516056E00C
:101C80002B496431884208D129490839496841F40F
:101C90007001274A083A516049E025497831884265
:101CA00008D123490839496841F07061204A083A4F
:101CB00051603CE01F49884206D1011F096841F08C
:101CC0000F01021F116032E01A491431884208D115
:101CD0001849091F096841F0F001164A121F1160E6
:101CE00025E014492831884208D11249091F0968A2
:101CF00041F470610F4A121F116018E00D493C3128
:101D0000884208D10B49091F096841F47041094A0A
:101D1000121F11600BE007495031884207D1054975
:101D2000091F096841F47021024A121F11607047AF
:101D3000080002400804024010B50022026847F67D
:101D4000F0739A430C6A8B6823430C6923434C69F4
:101D500023438C692343CC6923434C6A23438C6A15
:101D600023431A430260CB6843600B6883604B686F
:101D7000C36010BD2DE9F0472848006800F1100548
:101D80002E8826480068077AD6B9042F18D124482F
:101D9000007801280FD100212248006880B2801C01
:101DA000214A42F8101030202049088000BF00204E
:101DB0001B49087003E0072710201C49088027E012
:101DC000AC88A64201D8042000E002200746B442B5
:101DD00000D93446A0B2A96888478046002001F0A7
:101DE0007BF88146A2B24946404605F053F9A1B2BC
:101DF000002003F0A5FE2888001B28806888204466
:101E0000688030200949088000020949088000BF25
:101E1000024909680F72BDE8F08700001C0000202D
:101E200016000020505C0040006000402E000020A2
:101E30002C0000202DE9F0412848006800F1100432
:101E40002688A068C0B1BEB1A588B54200D9354684
:101E5000A8B2A168884707462088401B2080608878
:101E600028446080002001F015F88046AAB241465F
:101E7000384602F05FFF00BF208850B14FF4405059
:101E8000174908800021084603F05AFE3020154902
:101E900008802088A188884204DB03200F49096854
:101EA000087218E02088002804DD05200B49096825
:101EB000087210E0208870B9062008490968087285
:101EC00000210948006880B2801C084A42F81010BE
:101ED000302004490880BDE8F08100001C0000208B
:101EE0002C0000202E000020505C004000600040CC
:101EF00070B504462088A5287ED160885A28FBD179
:101F0000A0880A28F8D1A08A1228F5D1E08A3428BE
:101F1000F2D1E088302804D031282FD032286CD17B
:101F200059E0217A090209B2628941EA0200FEF70A
:101F30006BFB05464449FEF7A1F944498862217BC1
:101F4000090209B2E28941EA0200FEF75DFB05469B
:101F50003D49FEF793F901463C48C162217C0902E4
:101F600009B2628A41EA0200FEF74EFB0546364995
:101F7000FEF784F901463548016360E0217A0902E1
:101F800009B2628941EA0200FEF73EFB05462E498E
:101F9000FEF774F92D490867217B090209B2E2892D
:101FA00041EA0200FEF730FB05462749FEF766F9D5
:101FB000014626484167217C090209B2628A41EA4A
:101FC0000200FEF721FB05461F49FEF757F90146BF
:101FD0001E48816733E0217A090209B2628941EA29
:101FE0000200FEF711FB05461749FEF747F91749AE
:101FF000C1F8B800217B01E025E01FE0090209B229
:10200000E28941EA0200FEF7FFFA05460E49FEF7B3
:1020100035F901460D48C0F8BC10217C090209B20F
:10202000628A41EA0200FEF7EFFA05460649FEF72A
:1020300025F901460548C0F8C01000E000BF00BF08
:1020400001200349487270BD0000C84248160020B4
:10205000B21400202DE9F84F9B480068457800270E
:10206000BA46062D1BD198480068007800F07F0022
:10207000002813D1944909688878012803D193492D
:102080000968CF690AE0022803D1904909680F6AFC
:1020900004E0032802D18D4909684F6A94E0002DBD
:1020A00064D189480068408800285FD1864800686C
:1020B000C08802285AD1844800680079002855D188
:1020C00081480068007800F07F0028B97E480068E9
:1020D000808808B97E4F77E07B480068007800F080
:1020E0007F00012810D17849096848797749096843
:1020F0008A6900219047002866D173480068807A79
:10210000002861D0724F5FE06F480068007800F0EF
:102110007F00022858D16C480068407900F00F0613
:1021200069480068407900F07009674800684079A4
:1021300000F0800038B1674901EB8600D0F8000C50
:1021400000F0300806E0634901EB8600D0F8000C8F
:1021500000F4405860480078B04235D9B9F1000F1A
:1021600032D1B8F1000F2FD0594F2DE0082D07D1F3
:1021700055480068007800F07F0028BB574F23E0E7
:102180000A2D21D150480068007800F07F00012816
:102190001AD14D480068807AB0B14B480068408839
:1021A00090B949480068007970B947480068C0880C
:1021B000012809D1444909684879444909688A696C
:1021C0000021904700B9464F57B13F480068A0F83A
:1021D00012A03D48006887610020B84700240FE046
:1021E000394A12685078394A12681169884704469A
:1021F000032C05D10920344909680872BDE8F88F1D
:1022000031480068008A4FF6FF71884204D10920E6
:102210002D4909680872F1E7022C03D02A480068AA
:10222000008A20B90820284909680872E6E726488C
:102230000068007800F08000E0B323480068C088A0
:10224000009021480068008A0099884204D91E49FC
:1022500000980968088223E01B480068008A1A4930
:102260000968C98888421BDA17480068008A17493C
:10227000096891F82C10884203DA00201949087087
:102280000EE011480068008A1049096891F82C1086
:1022900090FBF1F201FB120010B901201149087006
:1022A0000A48006890F82C10074800688182FFF700
:1022B00061FD07E0FFE70320034909680872000396
:1022C0000949088000BF99E71C0000202000002079
:1022D0007D5F00000050004098000020015F00007A
:1022E000515F0000160000202C0000207047000005
:1022F0002DE9F04104460D464FF0C042054B204603
:102300002946FEF712F906460022034BFEF79BF81A
:10231000BDE8F081FB210940008066402DE9FF5FA8
:1023200086B014461D464FF0010A00200390049029
:1023300005904FF00109002600BF83460022134696
:1023400020462946FEF700FA09D285F00040CDE983
:10235000004020460199FEF7ABF9064604E020460E
:102360002946FEF7A5F906463046FEF756F92246FD
:102370002B46CDE90001FEF763F8074688460022A8
:10238000544B38464146FEF75EF8CDE90001FEF7B2
:10239000AEF9834607E009EB89004FEA40090AF1EC
:1023A000010000F0FF0A0A2096FBF0F090FBF9F024
:1023B0000028F0D142F2107096FBF0F00A2190FB59
:1023C000F1F201FB1200C0B28DF80C004FF47A70EC
:1023D00096FBF0F090FBF1F201FB1200C0B28DF819
:1023E0000D00642096FBF0F090FBF1F201FB12006F
:1023F000C0B28DF80E000A2096FBF0F090FBF1F2CF
:1024000001FB1200C0B28DF80F000A2096FBF0F11C
:1024100000FB1160C0B28DF810002E208DF8110065
:102420004FF47A70BBFBF0F00A21B0FBF1F201FB34
:1024300012008DF812006420BBFBF0F0B0FBF1F24B
:1024400001FB12008DF813000A20BBFBF0F0B0FB7B
:10245000F1F201FB12008DF814000A20BBFBF0F131
:1024600000FB11B08DF8150000211498801D03AAFF
:102470001154894608E003A810F80900303003A978
:1024800001F8090009F10109B9F10A0FF3DB002293
:10249000134620462946FEF757F908D20AF10100F3
:1024A00000F0FF0A2D20CAF1050103AA50542E2086
:1024B0008DF8110000211498801D03AA1154CAF14F
:1024C000050003A94218DDE9061002F03DFB0AB041
:1024D000BDE8F09F0088C34003460621062212484B
:1024E000018812480288ABB1012B1BD13AB94EF6D4
:1024F000EE60814201D1002070470120FCE739B92C
:102500004EF6EE60824201D10120F5E70020F3E7AC
:10251000AB20F1E709B90020EEE70AB90120EBE7AB
:10252000AB20E9E70020E7E7000001080008010808
:1025300010B504240B4800F003FB0446042C01D022
:10254000204610BD0021074800F03AFB0446042C49
:1025500001D02046F5E7044800F0F2FA0446204690
:10256000EFE70000000001080008010810B504F0C2
:1025700049FF044601F056FB204610BD2DE9F84FF7
:10258000074689460425DFF8D4A0354800904FF06F
:102590000008002400264FF0000B0020FFF79CFFEE
:1025A0008046B8F1010F04D1DFF8B4A02D480090A7
:1025B0000AE0B8F1000F04D1DFF8A8A02848009085
:1025C00002E0AB20BDE8F88F4EF6EE61504600F019
:1025D000F7FA0546042D01D02846F3E701F022FB67
:1025E0004946384600F020FA0646042E01D030460F
:1025F000E8E700241DE01C4830F81400B84216D06B
:10260000194931F81400194900F014F98346BBF157
:10261000010F0CD0154A128891B2134A32F81400F7
:1026200000F002FA0646042E01D03046CAE7601CCC
:1026300084B24B2CDFDB009800F082FA0546042DB3
:1026400001D02846BEE70021504600F0B9FA054601
:10265000042D01D02846B5E72846B3E7FF0301085B
:102660000000010800080108960100203401002044
:1026700010B509490888094900F0DCF8064948887E
:102680000649891C00F0D6F8034988880349091DCA
:1026900000F0D0F810BD00009601002004140020C6
:1026A00038B54B49488A694600F0C4F8BDF80000C7
:1026B00000B938BDBDF90000FDF7A6FF0446454945
:1026C000FDF7DCFD444988624149888A694600F08B
:1026D000B1F8BDF90000FDF797FF04463F49FDF74B
:1026E000CDFD01463C48C1623949C88A694600F0BF
:1026F000A1F8BDF90000FDF787FF04463549FDF755
:10270000BDFD0146344801633149088B694600F03C
:1027100091F8BDF90000FDF777FF04462D49FDF75C
:10272000ADFD2D4908672A49488B694600F082F8BB
:10273000BDF90000FDF768FF04462849FDF79EFD3E
:102740000146254841672249888B694600F072F8A6
:10275000BDF90000FDF758FF04461E49FDF78EFD48
:1027600001461D4881671A49C88B694600F062F826
:10277000BDF90000FDF748FF04461649FDF77EFD50
:102780001549C1F8B8001249088C694600F052F8A2
:10279000BDF90000FDF738FF04461049FDF76EFD56
:1027A00001460D48C0F8BC100949488C694600F044
:1027B00041F8BDF90000FDF727FF04460549FDF784
:1027C0005DFD01460448C0F8C01000BF71E700007D
:1027D000960100200000C8424816002000007A44FC
:1027E00010B51249C888124900F024F80F49088929
:1027F0000F49891C00F01EF80C4948890C49091D35
:1028000000F018F8094988890949891D00F012F873
:102810000649C8890649083100F00CF80349088ABE
:1028200003490A3100F006F810BD000096010020AF
:102830004C1400202DE9F04706460F46002545F2CE
:1028400055584FF00109124CA2460020FFF744FEF4
:102850000546AB2D01D1BDE8F0870D4800EBC52A38
:102860000C480068841E0BE0B4F80080B04506D127
:1028700034F8020C00B238804FF0000904E0241F45
:102880000AF102008442EFD800BF4846E3E70000A7
:10289000000001083801002010B50B4AB2F92010E1
:1028A0000A4A108800F004F9074AB2F92210074AD0
:1028B000508800F0FDF8044AB2F92410034A9088C9
:1028C00000F0F6F810BD0000E4130020960100208F
:1028D00070B54548407A00287ED0002042494872B1
:1028E0004249886A4249FDF797FC0546FDF7CCFE50
:1028F00084B24049488A21B200F0DAF83B49C86AFC
:102900003D49FDF789FC0546FDF7BEFE84B2394915
:10291000888A21B200F0CCF83449086B3449FDF7BD
:102920007BFC0546FDF7B0FE84B23249C88A21B26D
:1029300000F0BEF82D49086F2D49FDF76DFC0546E6
:10294000FDF7A2FE84B22B49088B21B200F0B0F84B
:102950002649486F2849FDF75FFC0546FDF794FEC0
:1029600084B22449488B21B200F0A2F81F49886F35
:102970001F49FDF751FC0546FDF786FE84B21D494F
:10298000888B21B200F094F81849D1F8B8001849A2
:10299000FDF742FC0546FDF777FE84B21549C88B6A
:1029A00021B200F085F81149D1F8BC001249FDF7B9
:1029B00033FC0546FDF768FE84B20E49088C21B24F
:1029C00000F076F80949D1F8C0000949FDF724FC68
:1029D0000546FDF759FE00E005E084B20549488C44
:1029E00021B200F065F870BDB21400204816002036
:1029F0000000C8429601002000007A4410B500246F
:102A00000BE0074A126832F91410E21C054B33F848
:102A1000120000F04DF8601CC4B2062CF1DB10BDB2
:102A200078010020960100202DE9F04104460F4670
:102A300004250026DFF86C800120FFF74DFD0646D7
:102A4000AB2E01D1BDE8F081701C174901EBC02805
:102A500021E0164800680068401CB8B939461348A0
:102A6000006800F0ADF80546042D01D02846E9E7DE
:102A700021460E480068801C00F0A2F805460B486D
:102A80000068001D094908602846DBE70748006820
:102A9000001D06490860054800684045D9D38020DC
:102AA000D0E70000FF070108FEFF00083801002002
:102AB00070B506460C460025A1B23046FFF7B4FFBC
:102AC0000546802D04D1A1B23046FFF757FD0546DB
:102AD000284670BDF8B50026104D002710E0684666
:102AE00006F02EFB04469DF8000000B90AE09DF8B0
:102AF0000000304486B225F8024BAD1C781C87B22A
:102B0000202FECDB00BF06B9F8BD3146012003F0F1
:102B100017F8012003F042F800BFF5E7806100409C
:102B200010B590B06946032004F056FA84B22146ED
:102B3000684606F09DFB032002F0D8FF10B010BDE0
:102B400030B5044604254FF4302000F065F8054602
:102B5000042D17D10C48006940F002000A490861B1
:102B600008464461006940F0400008614FF430209D
:102B700000F052F805460448006941F6FD7108402E
:102B800001490861284630BD0020024004200B495D
:102B9000C96801F0010109B101200EE00749C968C7
:102BA00001F0040109B1022007E00449C96801F0FD
:102BB000100109B1032000E004207047002002400A
:102BC00070B504460D460426F00200F025F80646CE
:102BD000042E11D10948006940F00100074908613D
:102BE0002580F00200F018F806460448006941F616
:102BF000FE71084001490861304670BD0020024066
:102C0000024803494860034848607047230167450C
:102C100000200240AB89EFCD00B502460423FFF748
:102C2000B5FF034603E0FFF7B1FF0346521E012B39
:102C300001D1002AF7D102B90523184600BD0000D2
:102C400010B51A48007910B10020194908701748CA
:102C5000007910B90120164908701448807910B124
:102C60000220134908701148807910B102201049E0
:102C700008700E48C079A8B10C48C079012804D06A
:102C8000022806D003280CD107E004200849087068
:102C900007E005200649087003E006200449087093
:102CA00000BF00BF01F08AF810BD0000B214002080
:102CB0002801002030B503461C788C545D78541CE4
:102CC0000D559D78941C0D55DD78D41C0D5530BDE7
:102CD0002DE9F041024600250026002000230024B3
:102CE000002791F803C00CF00F0591F803C00CF019
:102CF000100CBCF1000F03D091F802C04CEA05059E
:102D000091F800C0BCF1000F31D0146800202BE016
:102D10004FF0010C0CFA00F3B1F800C00CEA030606
:102D20009E4220D183004FF00F0C0CFA03F7BC43F6
:102D300005FA03FC4CEA040491F803C0BCF1280F27
:102D400006D14FF0010C0CFA00FCC2F814C00AE0E6
:102D500091F803C0BCF1480F05D14FF0010C0CFAFB
:102D600000FCC2F810C0401C0828D1D31460B1F890
:102D700000C0BCF1FF0F34DD546800202EE000F1EC
:102D8000080C4FF0010808FA0CF3B1F800C00CEA87
:102D900003069E4221D183004FF00F0C0CFA03F77B
:102DA000BC4305FA03FC4CEA040491F803C0BCF1EF
:102DB000280F05D100F1080C08FA0CF8C2F81480AD
:102DC00091F803C0BCF1480F07D100F1080C4FF097
:102DD000010808FA0CF8C2F81080401C0828CED36D
:102DE0005460BDE8F0810000F0B50A4600230024DD
:102DF0000021002500F00046B6F1004F02D11D4E23
:102E0000F16901E01B4E7168C0F3034583B200F421
:102E10004016B6F5401F08D121F07061154E766856
:102E200026F07066134F7E6012E000F48016B6F54F
:102E3000801F06D1032606FA05F4A14341F0706114
:102E400006E0460D360103FA06F6B14341F0706123
:102E500022B1460D360103FA06F6314300F0004672
:102E6000B6F1004F02D1034EF16101E0014E7160F5
:102E7000F0BD0000000001400246002093680B40B6
:102E80000BB1012000E000207047416170470161F3
:102E90007047000001460548006880B200EBC100A1
:102EA000001D034A32F8100080B27047505C0040A9
:102EB0000060004001460648006880B200EBC10097
:102EC000801D044A32F81000C0F30900704700006A
:102ED000505C00400060004001460548006880B238
:102EE00000EBC100034A32F8100080B270470000C6
:102EF000505C0040006000402DE9F04104460A4863
:102F00000568001D0668001D07683D4455B108228C
:102F1000A11C284600F003FF042204F112013046F0
:102F200000F0FDFEBDE8F081E8F7FF1F2DE9F04756
:102F30004FF0000A64246425642600274FF000083F
:102F40004FF0000900216148A0F85410A0F8561075
:102F5000A0F8581065E00024002500264FF01E0A56
:102F600058E001F0E1F85A48407A5949097A40EAB4
:102F7000012000B2554988865548C07A5449897A5B
:102F800040EA012001B25148C1865148407B504976
:102F9000097B40EA012001B24C480187B0F93400B6
:102FA000C01B05D54948B0F934004042C01B03E0BE
:102FB0004648B0F93400C01B04444448B0F9360018
:102FC000B0EB080006D54148B0F936004042A0EB0E
:102FD000080004E03D48B0F93600A0EB08000544C5
:102FE0003A48B0F93800B0EB090006D53748B0F9D7
:102FF00038004042A0EB090004E03448B0F9380042
:10300000A0EB090006443148B0F93470B0F93680BD
:10301000B0F938905FEA0A00AAF101011FFA81FABB
:103020009FD1642C97DA642D95DA642E93DA00240C
:10303000002500264FF4FA6A27E001F075F82448CD
:10304000407A2349097A40EA012000B21F49888664
:103050001F48C07A1E49897A40EA012001B21B4804
:10306000C1861B48407B1A49097B40EA012001B216
:1030700016480187B0F9340004441448B0F936000A
:1030800005441248B0F9380006445FEA0A00AAF184
:1030900001011FFA81FAD0D14FF4FA6094FBF0F0ED
:1030A00001B20A48A0F854104FF4FA6095FBF0F012
:1030B00001B20648A0F856104FF4FA6096FBF0F003
:1030C00001B20248A0F85810BDE8F087E4130020D0
:1030D000D41300202DE9FF410546002602AB06224D
:1030E00003211E2005F0B6FA544800680A2190FB1F
:1030F000F1F052490968081A504908609DF8090022
:103100009DF8081040EA012000B24C4909680844C3
:103110004A490860084600680A2190FBF1F000B2B5
:10312000ADF800004548406890FBF1F0434949681C
:10313000081A424948609DF80D009DF80C1040EABD
:10314000012000B23D49496808443C4948600846AE
:1031500040680A2190FBF1F000B2ADF80200374858
:10316000806890FBF1F035498968081A3349886016
:103170009DF80B009DF80A1040EA012000B22F498B
:10318000896808442D498860084680680A2190FBB8
:10319000F1F000B2ADF804002948C07940B1012037
:1031A0002849087000202649C870684600F0C6FF0C
:1031B0002448007808B3002022490870002415E054
:1031C0002148006830F91400002805DA1E4800681C
:1031D00030F91400404203E01B48006830F9140045
:1031E000142801DA701CC6B2601CC4B2062CE7DBDE
:1031F000022E02DB01201249C87000241AE0124995
:10320000096801EB4401B1F906100F4A126832F95E
:1032100014208F1807EBD7713DF91420A2EB610041
:10322000FDF7F2F98046FDF716FA00B225F8140012
:10323000601CC4B2032CE2DBBDE8FF8158140020FF
:10324000B21400207C0100207801002000BFFEE7BE
:1032500010B50F2017490870032048700222164845
:10326000FFF728FD062213491348001DFFF722FD32
:103270000A22104910480830FFF71CFD00200F49B2
:103280000860002408E00B48005D0C490968084408
:103290000A490860601CC4B20E2CF4DB07480068C1
:1032A000FF21B0FBF1F201FB1200024988730F20ED
:1032B00010BD0000C8150020B0150020D402002069
:1032C00010B53F2058490870012048705749B1F99E
:1032D0000000FDF799F9564908605449B1F9020018
:1032E000FDF792F9534908605049B1F90400FDF720
:1032F0008BF9514908604D49B1F93400FDF784F963
:103300004E4908604949B1F93600FDF77DF94C494D
:1033100008604649B1F93800FDF776F94949086077
:103320004949B1F90000FDF76FF94849086046497D
:10333000B1F90200FDF768F9454908604249B1F961
:103340000400FDF761F94349086000204249086024
:103350004249086042490860022233493448FFF775
:10336000A9FC062230493348FFF7A4FC0A222E4963
:103370003148FFF79FFC0E222B493048FFF79AFC9B
:10338000122229492E48FFF795FC162226492D487E
:10339000FFF790FC1A2224492C48FFF78BFC1E22D1
:1033A00021492B48FFF786FC22221F492948FFF7B5
:1033B00081FC26221C492848FFF77CFC2A221A4956
:1033C0002648FFF777FC2E2217492548FFF772FCA5
:1033D000322215492348FFF76DFC36221249224854
:1033E000FFF768FC3A2210492048FFF763FC0020F1
:1033F0001F490860002408E00B48005D1C4909686B
:1034000008441B490860601CC4B23E2CF4DB184819
:103410000068FF21B0FBF1F201FB1200024981F8C4
:103420003E003F2010BD0000C8150020E41300201E
:10343000D8020020DC020020E0020020E40200208C
:10344000E8020020EC020020A8020020F002002088
:10345000F4020020F8020020FC02002000030020FB
:1034600004030020080300200C03002010030020A8
:10347000D402002010B51D20414908700220487078
:1034800002224048FFF716FC06223D493E48FFF75E
:1034900011FC0A223A493D48FFF70CFC0E2238493C
:1034A0003B48FFF707FC122235493A48FFF702FC78
:1034B00039480088000A3249887537480078C8754D
:1034C00036480088000A0876344800784876344840
:1034D000007888760020C8763248007828B10846FF
:1034E000C07E40F00100C87605E02548C07E00F0AF
:1034F000FE002349C8762C480078572806D120487A
:10350000C07E40F002001E49C87609E026480078D7
:10351000452805D11A48C07E00F0FD001849C8763C
:10352000224800784E2806D11548C07E40F004009D
:103530001349C87609E01D480078532805D1104882
:10354000C07E00F0FB000E49C876002018490860D4
:10355000002408E00A48005D154909680844144938
:103560000860601CC4B21C2CF4DB11480068FF2109
:10357000B0FBF1F201FB1200014908771D2010BDDC
:10358000C815002014030020180300201C0300208D
:1035900020030020240300202C03002030030020FF
:1035A00028030020360300203403002035030020C8
:1035B000D402002070B57349886A7349FCF72CFE69
:1035C0000546FDF748F8714908606E49C86A6E49BA
:1035D000FCF722FE0546FDF73EF86D490860694993
:1035E000086B6949FCF718FE0546FDF734F8694990
:1035F00008606449086F6449FCF70EFE0546FDF754
:103600002AF8654908605F49486F5F49FCF704FE86
:103610000546FDF720F8614908605A49886F5A4904
:10362000FCF7FAFD0546FDF716F85D4908605549B7
:10363000D1F8B8005449FCF7EFFD0546FDF70BF84B
:10364000584908604F49D1F8BC004F49FCF7E4FDE8
:103650000546FDF700F8544908604A49D1F8C00012
:103660004949FCF7D9FD0546FCF7F5FF4F490860CD
:1036700021204F4908700520487044480088000AFE
:10368000887042480078C87041480088000A087174
:103690003F48007848713F480088000A88713D48DB
:1036A0000078C8713C480088000A08723A480078DF
:1036B00048723A480088000A887238480078C87210
:1036C00037480088000A0873354800784873354841
:1036D0000088000A887333480078C873324800882D
:1036E000000A087430480078487430480088000A9E
:1036F00088742E480078C8742E480088000A08751F
:103700002C48007848752C480088000A88752A489B
:103710000078C87529480088000A0876274800788C
:10372000487627480088000A887625480078C876B9
:1037300024480088000A0877224800784877224801
:103740000088000A887720480078C87700201F4941
:103750000860002408E01648005D1C490968084418
:103760001A490860601CC4B2202CF4DB17480068BA
:10377000FF21B0FBF1F201FB12000D4981F820009E
:10378000212070BD481600200000C84238030020E8
:103790003C03002040030020440300204803002095
:1037A0004C03002050030020540300205803002045
:1037B000C81500205C030020600300206403002083
:1037C000680300206C03002070030020D402002056
:1037D00015202F4A1070042050702E480088000ACF
:1037E00090702C480078D0702A484088000A1071E8
:1037F00028488078507127488088000A90712548B1
:103800000079D0712348C088000A1072214880795D
:10381000507220480088000A90721E480078D072CA
:103820001C480088000A10731A4800785073194821
:103830000088000A907317480078D07315480088F4
:10384000000A107413480078507412480088000A67
:10385000907410480078D07400200F4A1060002146
:1038600008E00B48405C0C4A126810440A4A106099
:10387000481CC1B21429F4DB07480068FF22B0FBE2
:10388000F2F302FB1300024A107515207047000086
:10389000C815002064140020D402002010B505F0E3
:1038A00047F810BD10B505F0A9F810BD10B505F02A
:1038B0003FF810BD10B505F0A1F810BD21B1028888
:1038C00042F48062028004E002884FF6FF331A401F
:1038D0000280704721B1028842F00102028004E0B8
:1038E00002884FF6FE731A400280704710B50446F6
:1038F0000B48844209D10121480501F005FD002152
:103900004FF4001001F000FD08E00121880501F0EE
:10391000FBFC00214FF4800001F0F6FC10BD00001C
:103920000054004021B1028842F48072028004E019
:1039300002884FF6FF631A400280704721B1028867
:1039400042F40072028004E002884FF6FF531A40EE
:10395000028070471AB183880B43838002E083881A
:103960008B438380704700002DE9F04385B0044607
:103970000D460026B1460427DFF8CC80A6884FF616
:10398000C0700640684601F0EFFCDDF808802F4863
:10399000B8FBF0F01FFA80F946EA0906A6802088F5
:1039A0004FF6FE7108402080002629492868884289
:1039B0000CD828684000B8FBF0F087B2042F00DA7A
:1039C00004273E4309F10100208427E0E8884BF6F4
:1039D000FF71884206D1286800EB4000B8FBF0F088
:1039E00087B209E0286800EBC00101EB0010B8FBCA
:1039F000F0F087B247F48047C7F30B0008B947F0EF
:103A0000010747F4004006434FF4967009FB00F0AD
:103A10004FF47A7190FBF1F0401C2084A68320883B
:103A200040F00100208026884FF6F5300640A88837
:103A30006989084306432680A8892989084320818B
:103A400005B0BDE8F083000000127A0040420F008C
:103A5000A086010012B141F0010102E04FF6FE73B1
:103A600019400182704741F2883101600021818054
:103A70004BF6FF71C1800021018141814FF48041EB
:103A8000818170472DE9FF5F88B092469946DDF845
:103A90005CB0ABF1010004B208E0601E0AEBC001AB
:103AA00003C90AEBC40203C2601E04B2002CF4DC9A
:103AB000DDE90801CAE9000100252E46002418E0CE
:103AC000169800EBC40003C8CDE902010AEBC4005C
:103AD00003C8CDE90001DDE90223FCF7B4FC2A4666
:103AE0003346CDE90401FCF707FC05460E46601C91
:103AF00004B25C45E4DB1998401E04B208E0601E85
:103B000009EBC00103C909EBC40203C2601E04B281
:103B1000002CF4DC0027B846012418E0189800EBCC
:103B2000C40103C9CDE9020109EBC40003C8CDE912
:103B30000001DDE90223FCF786FC3A464346CDE965
:103B40000401FCF7D9FB07468846601C04B21998AB
:103B50008442E3DB3A46434628463146FCF76DFC97
:103B6000C9E90001D9E90001CDE90601DDE9060155
:103B70000CB0BDE8F09F000010B518480068047A4A
:103B8000022C01D0042C05D1FEF7F4F8134800688C
:103B9000047A1CE0062C19D11048006840780528EA
:103BA0000ED10E480068007800F07F0040B90B4944
:103BB0000968C87801F01AFF09490968086A80474E
:103BC0000849096888688047082400E008240349F8
:103BD00009680C7201F06EF910BD00001C00002095
:103BE000280000202000002010B5482004F098FC98
:103BF00000F06EFE00F042F9012004F0C1FC02F07A
:103C00005DFD01F03DF901F0A9F8FCF757FF00F068
:103C1000EFFE00F095FC00F06BF9FEF7F1FFFEF708
:103C2000A5FC10BD70B5042600240120FEF754FC4D
:103C30000446AB2C06D1124800EBC42011490860A1
:103C4000AB2070BD0E4800EBC4200E490860601C1C
:103C50000B49891E01EBC0250CE00A48006800688A
:103C6000401C10B904263046EBE706480068001DEA
:103C70000449086003480068A842EED38020E0E7CA
:103C8000000001083801002038B56B46012275217B
:103C9000682004F0DFFC04460CB9002038BD002287
:103CA0006B21682004F0C4FD07221921682004F06C
:103CB000BFFD03221A21682004F0BAFD10221B2147
:103CC000682004F0B5FD09221C21682004F0B0FD35
:103CD0000120E3E738B5002000906B4601220A215D
:103CE0001E2004F0B7FC04461CB19DF800004828D3
:103CF00001D0002038BD702200211E2004F098FD64
:103D0000202201211E2004F093FD002202211E200A
:103D100004F08EFD642004F0F7FB0120EAE730B5E3
:103D20000B46002100BF16E00A24B4EB107F05D932
:103D3000302404EB107403F8114005E0412404EB37
:103D400010740A3C03F81140000100254C00641C6B
:103D50001D554C1CE1B29142E6DB30BD10B5154853
:103D6000007800F0010020B101211348FFF78DF821
:103D700003E001211048FFF78AF80E480078C0F3ED
:103D8000400020B102210C48FFF77FF803E0022138
:103D90000948FFF77CF807480078C0F3800020B19D
:103DA00004210548FFF771F803E004210248FFF7FA
:103DB0006EF810BD2C0100200014014010B52D48F4
:103DC0000078072851D2DFE800F004224050444830
:103DD0004C0028484088401C80B2264948807828FA
:103DE00001DB00204880234840880A2807DB21485F
:103DF0004088142807DD1F4840881E2803DA062063
:103E00001D49087002E000201B4908702DE0194888
:103E10004088401C80B2174948803C2801DB0020C4
:103E2000488014484088142803DC01201249087097
:103E30000AE010484088282803DC02200E49087058
:103E400002E004200C4908700FE004200A490870C1
:103E50000BE001200849087007E0022006490870BD
:103E600003E004200449087000BF00BFFFF776FF9D
:103E700010BD0000280100202C01002008B5012100
:103E8000202001F051FA0121402001F04DFA0121DA
:103E9000084601F049FA01211148FEF7A5FF01216A
:103EA0001048FEF7A1FF0720ADF8000010208DF8A4
:103EB000030003208DF8020069460B48FEF708FF57
:103EC00007210948FEF7E3FF7820ADF800006946B6
:103ED0000648FEF7FDFE78210448FEF7D8FF08BD2E
:103EE00000043000000230000014014000180140BE
:103EF00010B507211948FEF7C8FF4FF4617004F0B0
:103F000003FB07211548FEF7C2FF4FF47A5004F077
:103F1000FBFA07211148FEF7B8FF4FF4617004F077
:103F2000F3FA07210D48FEF7B2FF4FF47A5004F080
:103F3000EBFA07210948FEF7A8FF4FF4617004F07F
:103F4000E3FA07210548FEF7A2FF4FF47A5004F088
:103F5000DBFA07210148FEF798FF10BD001401406D
:103F60002DE9F04704460D46164631462846FCF733
:103F700053F9804631464FF07E50FCF747F98146B1
:103F80002146FCF749F907464146FCF7EDF8BDE844
:103F9000F087000010B500F0C7F85C4840785B4936
:103FA000097840EA01205A49098C401A00B2584960
:103FB00008805648C0785549897840EA012154481C
:103FC000408C081A00B252494880504840794F4905
:103FD000097940EA012000B24D4988804B48407A77
:103FE0004A49097A40EA012000B24949888647488F
:103FF000C07A4649897A40EA012001B24448C18624
:104000004248407B4149097B40EA012001B24048D7
:1040100001870146B1F93420B1F95410501AFCF768
:10402000F3FA3B49C865B1F93620B1F95610501A78
:10403000FCF7EAFA0146364801660146B1F9382034
:10404000B1F95810501AFCF7DFFA014630484166C2
:1040500030488079002857D02F48007880B9002058
:104060002B49088400212A484184818400202B495F
:1040700008602B4908602B49086001202649087018
:104080002348B0F90000254909680844234908601D
:104090001F48B0F902002249096808442049086015
:1040A0001B48B0F904001F49096808441D4908600D
:1040B00019480078C82822D118480068164909789C
:1040C00090FBF1F000B212490884154800681249CB
:1040D000097890FBF1F001B20D4841841148006865
:1040E0000D49097890FBF1F001B209488184002064
:1040F0000949087007498871FEF7CEFB10BD0648D4
:104100000078401C0449087000BFF7E7D413002072
:10411000E4130020B2140020740100206801002084
:104120006C0100207001002010B5034B0E223B21D2
:10413000682004F08FFA10BDD41300202DE9FF5F32
:1041400081469448007898B10020924908709249BD
:1041500008609249086092490860002406E0002047
:104160009049096821F81400601CC4B2062CF6DBE3
:10417000002421E08B48006830F9140039F914104C
:10418000884206DD39F814008649096821F81400D0
:1041900010E08448006800EB4400B0F9060039F9EB
:1041A0001410884206DA39F814007E49096801EBD8
:1041B0004401C880601CC4B2032CDBDB7A48C079A0
:1041C000012847D1794908690021FCF7F1FA04D2A6
:1041D0007648006980F0004001E0744800690546B7
:1041E0007349FCF7EFFA35D27049486EFCF798FA3C
:1041F000704A714BCDE90001FCF725F907464FF0F5
:1042000060426E4BFCF71FF905460E466248006897
:10421000FCF786FA82462A463346FCF76DF8CDE96C
:104220000201FCF7A9FA5C49086000215A480068BD
:10423000FCF7BEFA04D25848006880F0004001E064
:104240005548006805465E49FCF7BCFA02D20220D8
:104250005549C8715448C079022847D153498868E4
:104260000021FCF7A5FA04D25048806880F0004095
:1042700001E04E48806805464D49FCF7A3FA35D267
:104280004A49C86DFCF74CFA07464A4A4A4BFCF7C4
:10429000DAF805464FF06042484BFCF7D4F8824606
:1042A0008B463F480068FCF73BFA52465B46CDE937
:1042B0000001FCF721F8CDE90201FCF75DFA38496D
:1042C0000860002136480068FCF772FA04D23448CE
:1042D000006880F0004001E0314800680546384938
:1042E000FCF770FA02D203202F49C8712E48C0791A
:1042F00003284CD12D49C8680021FCF759FA04D293
:104300002A48C06880F0004001E02848C06805469F
:104310002749FCF757FA3AD22449086EFCF700FA0D
:104320000746244A244BFCF78EF84FF06042234B9B
:10433000CDE90001FCF787F805460E4617480068EE
:10434000FCF7EEF982462A463346FBF7D5FFCDE966
:104350000201FCF711FA1149086000210F480068BA
:10436000FCF726FA04D20D48006880F0004001E016
:104370000A48006805461249FCF724FA07D20120D2
:104380000449087000200849C871FEF737FBBDE8F2
:10439000FF9F00007D010020880100208401002093
:1043A0008001002078010020B2140020E4130020D6
:1043B00000409C4530689DC8FE3F9F3F4D62603F76
:1043C0000000B44300BFFEE72DE9F04F8BB0414938
:1043D000886CFCF740F904B23E49D1F89000FCF734
:1043E0003AF90FFA80F93B48D0F8D80080F0004540
:1043F0002846FCF730F90FFA80FA3748B0F90C007C
:10440000B0F5966F51DD35490868FCF789F9074624
:10441000334A344BFCF789F8054604F015F8CDE92A
:1044200006012E494868FCF77BF905462C4A2D4BBE
:10443000FCF77BF8CDE9000104F006F8CDE90201B4
:104440002549B1F90C10A1F57A70FCF7E6F807469A
:10445000DDE90223FCF769F8CDE90401DDE9062373
:10446000FCF763F8CDE90801FCF722F98346ABEBD2
:104470000400A0EB0900504400B21B490880ABEBDC
:1044800004004844A0EB0A0000B248800BEB040093
:104490004844504400B288800BEB0400A0EB0900B4
:1044A000A0EB0A0000B2C88007E0D2200E49C88005
:1044B00088804880088001F001F90C48007918B123
:1044C000094804F00DFD01E004F040FD0BB0BDE82B
:1044D000F08F00004816002064140020BC15002056
:1044E00031B3CF6394A94C407C030020B214002068
:1044F000704770471CB510A103C9CDE90001052222
:104500006946302000F0CCF805226946102000F002
:10451000A5F8002406E01DF80400A52800D003E05B
:10452000601CC4B2052CF6DB00BF052C01D00020B6
:104530001CBD0120FCE70000A5A5A5A5A500000065
:1045400010B508210548FEF7A0FC4FF400410448CF
:10455000FEF79DFC01F0D6F810BD000000140140EC
:104560000008014010B5044608213948FEF78DFCCB
:1045700005223849302000F093F8052236492A20D8
:1045800000F08EF80121212000F0ACF8012122205A
:1045900000F0A8F81A21242000F0A4F828212520F2
:1045A00000F0A0F80F21262000F09CF8012C08D183
:1045B0002021312000F096F80F21202000F092F801
:1045C00041E0022C08D12021312000F08BF80E218F
:1045D000202000F087F836E0032C1AD1FF21E120DB
:1045E00000F080F8FF21E22000F07CF80F2120206D
:1045F00000F078F8502001F0FFF8732001F0FCF88B
:1046000001213C2000F06EF807213D2000F06AF8FF
:1046100019E00E21202000F065F8FF21E12000F0D4
:1046200061F8FF21E22000F05DF8502001F0E4F88D
:10463000732001F0E1F801213C2000F053F807213C
:104640003D2000F04FF808210148FEF720FC10BD86
:10465000001401408C010020910100202DE9F0415F
:1046600007460D4616464FF400410C48FEF70DFC78
:10467000384601F0C1F88046002405E0FF2001F033
:10468000BBF82855601CC4B2B442F7DB4FF40041BC
:104690000248FEF7FCFB4046BDE8F08100080140FF
:1046A0002DE9F04107460C4615464FF400410C48F1
:1046B000FEF7EBFB384601F09FF88046002605E048
:1046C00014F8010B01F098F8701CC6B2AE42F7DB8B
:1046D0004FF400410248FEF7DAFB4046BDE8F081A6
:1046E0000008014070B505460C464FF400410848EB
:1046F000FEF7CBFB284601F07FF80646204601F086
:104700007BF84FF400410248FEF7C1FB304670BD14
:104710000008014070B5002100230F22C47804B3C3
:10472000154C246804F4E064C4F5E064210AC1F186
:104730000403CA40447804FA03F184781440214306
:1047400009010E4C0678A155047804F01F050124D8
:10475000AC4005786D11AD0005F1E025C5F80041CC
:1047600009E0047804F01F050124AC40044D0678EC
:10477000761145F8264070BD0CED00E000E400E045
:1047800080E100E002490143024A116070470000E5
:104790000000FA050CED00E070B5022647480068FD
:1047A000447846480068007800F07F00002844D133
:1047B000092C03D101F062FC06465FE0052C14D100
:1047C0003E480068C0787F280BDC3C480068807851
:1047D00038B93A480068808818B938480068807A43
:1047E00008B1082565E0002648E0032C0ED13348C7
:1047F0000068C078012807D130480068808818B95F
:1048000001F060FC064639E0022637E0012C35D184
:104810002A480068C07801280DD12848006880889F
:1048200048B926480068407A00F0200018B101F02D
:10483000B1FA064622E0022620E02048006800780F
:1048400000F07F00012805D10B2C17D101F0B6FC38
:10485000064613E019480068007800F07F0002283F
:104860000BD1012C03D101F095FA064606E0032C8A
:1048700004D101F03BFC064600E002264EB1E0B256
:104880000F4A1268516988470646032E01D109254F
:104890000FE00EB108250CE006250021094800684C
:1048A00080B2801C084A42F8101030200749088066
:1048B00000BF024909680D7270BD00001C00002095
:1048C00020000020505C0040006000402E000020CE
:1048D00008B54FF4A060FFF755FF1D208DF80000CC
:1048E00002208DF8010000208DF8020001208DF8D3
:1048F00003006846FFF70EFF1C208DF80000022021
:104900008DF8010001208DF802008DF80300684643
:10491000FFF700FF08BD2DE9F05F05468B46164600
:104920003446002C00DA64424FF47A7094FBF0F0C5
:10493000C7B24FF47A7094FBF0F100FB1140642190
:1049400090FBF1F000F0FF08642094FBF0F100FB15
:1049500011400A2190FBF1F000F0FF090A2094FBBE
:10496000F0F100FB114000F0FF0A3A465946284694
:1049700000F0CAF8691CC8B24246594600F0C4F8B3
:10498000A91CC8B24A46594600F0BEF8E91CC8B294
:104990005246594600F0B8F8BDE8F09F07E040F2F3
:1049A000375100BF0A00A1F10101FBD1401E0028D0
:1049B000F5D1704770B50646002415E004F1B0014A
:1049C000C8B200F035F9012000F032F9102000F0F3
:1049D0002FF9002504E0304600F056F9681CC5B2F6
:1049E000802DF8DB601CC4B2082CE7DB70BD000032
:1049F00008B50121102000F097FC0F20ADF8000051
:104A000003208DF8020010208DF8030069463D4810
:104A1000FEF75EF908213B48FEF739FA02213948D2
:104A2000FEF733FA3220FFF7B9FF02213548FEF7CF
:104A30002EFA0021AE2000F0CBF80021D52000F0A6
:104A4000C7F80021802000F0C3F80021A82000F062
:104A5000BFF800213F2000F0BBF80021D32000F078
:104A6000B7F80021084600F0B3F80021402000F01C
:104A7000AFF800218D2000F0ABF80021142000F0E9
:104A8000A7F80021202000F0A3F80021022000F068
:104A90009FF80021A12000F09BF80021C82000F021
:104AA00097F80021DA2000F093F80021122000F09E
:104AB0008FF80021812000F08BF80021EF2000F01A
:104AC00087F80021D92000F083F80021F12000F0C0
:104AD0007FF80021DB2000F07BF80021402000F06F
:104AE00077F80021A42000F073F80021A62000F040
:104AF0006FF80021AF2000F06BF80020FFF75AFF9D
:104B000008BD0000001001402DE9F04105460F46A8
:104B1000164600BF05EB45014906080E394600F070
:104B200045F800240AE006F1100101EB4101054AB5
:104B300002EB4101085D00F0A7F8641C062CF2DBD3
:104B4000BDE8F081CC9300002DE9F047044688468B
:104B500015464FF00009002600274146204600F088
:104B600025F81CE0E85D203800F0FF097E2C04DD0C
:104B7000002408F1010000F0FF08002609E009EB1D
:104B80004901094A02EB4101885D00F07DF8701C83
:104B9000C6B2062EF3DBA01DC4B2781CC7B2E85D16
:104BA0000028DFD1BDE8F087CC93000070B5044643
:104BB0000D4605F1B001C8B200F03AF8102141EA03
:104BC000141000F035F804F00F0000F031F870BD5B
:104BD00070B504460E4626B101211448FEF757F978
:104BE00003E001211148FEF750F9002517E00821E4
:104BF0000E48FEF74AF904F0800020B104210B486A
:104C0000FEF745F903E004210848FEF73EF90821C4
:104C10000648FEF73CF96006040E681CC5B2082D74
:104C2000E5DB01210148FEF732F970BD00100140BB
:104C300070B50446082501211248FEF726F908211F
:104C40001048FEF722F900BF16E004F0800020B102
:104C500004210C48FEF71BF903E004210948FEF784
:104C600014F908210748FEF712F900BF082105488A
:104C7000FEF70BF96006040E2800A5F10101CDB284
:104C8000E3D170BD0010014070B504460825012134
:104C90001348FEF7FCF800BF08211148FEF7F5F8AD
:104CA00000BF16E004F0800020B104210C48FEF79C
:104CB000EEF803E004210A48FEF7E7F80821084867
:104CC000FEF7E5F800BF08210548FEF7DEF86006AC
:104CD000040E2800A5F10101CDB2E3D170BD0000A2
:104CE0000010014010B511480068047A022C01D070
:104CF000042C01D1082412E0032C01D0052C05D18D
:104D0000FDF798F809480068047A08E0072C05D1F7
:104D100007490968C8688047082400E00824034957
:104D200009680C7200F0C6F810BD00001C000020DD
:104D300020000020F0B5561C7510074E06EB41040C
:104D40002B4605E034F8047B20F8017B401C5B1EF9
:104D5000002BF7D1F0BD00000060004000B587B027
:104D60000121084600F0C0FA0121042000F0DCFA1D
:104D70000F20ADF8180028208DF81B0006A93E482A
:104D8000FDF7A6FF0F213D48FEF77FF84FF6FF70B5
:104D9000ADF810004720ADF80C000020ADF812006F
:104DA000ADF80E0003A94FF0804002F00FF800208C
:104DB000ADF80000ADF802000120ADF804000020BD
:104DC000ADF80600ADF8080069464FF0804001F0EC
:104DD000E9FD0420ADF800000020ADF8020001203C
:104DE000ADF804000020ADF80600ADF808006946F3
:104DF0004FF0804001F0D6FD0820ADF80000002003
:104E0000ADF802000120ADF804000020ADF8060066
:104E1000ADF8080069464FF0804001F0C3FD0C205A
:104E2000ADF800000020ADF802000120ADF804004C
:104E30000020ADF80600ADF8080069464FF080404C
:104E400001F0B0FD0121880701F08EFC0122022152
:104E5000480701F0FDFD01220421080701F0F8FDDB
:104E600001220821C80601F0F3FD01221021880665
:104E700001F0EEFD07B000BD000C0140000801404C
:104E800008B50121082000F04FFA4FF47070ADF81A
:104E9000000018208DF8030003208DF802006946F9
:104EA0000248FDF715FF01F0E3FF08BD000C0140CB
:104EB0007047000010B50D4890F82C10002000F04D
:104EC000CFFD0B480068007A082805D14002094947
:104ED000088010200849088005480068007A0928E1
:104EE00001D1012010BD0020FCE700009C00002043
:104EF0001C0000202C0000202E0000202DE9F05F77
:104F000004464FF07F594FF07C512046FBF784F95F
:104F1000824625462E460C48A0EB660635462946B5
:104F20005046FBF779F983462946FBF775F9804629
:104F30004946FBF76EF907462946FBF76DF905462A
:104F40002846BDE8F09F0000DF59375F2DE9F84F94
:104F500004460025E168E068FBF75EF90090A1686F
:104F6000A068FBF759F9814661686068FBF754F95E
:104F7000824621682068FBF74FF983465146FBF7CC
:104F8000F3F880464946FBF7EFF807460099FBF730
:104F9000EBF80646FFF7B2FF054620682946FBF707
:104FA0003BF9206060682946FBF736F96060A0682D
:104FB0002946FBF731F9A060E0682946FBF72CF998
:104FC000E060BDE8F88F2DE9FF4F87B00446154635
:104FD0001E46206806906768D4F80880E06805904F
:104FE00031460598FBF718F9294604904046FBF72F
:104FF00013F9039087F0004001900899FBF70CF932
:1050000002900399FBF702F983460499FBF7FEF837
:1050100082461499FBF700F981462168FBF7A4F852
:10502000206031464046FBF7F7F829460490059882
:10503000FBF7F2F8039008990698FBF7EDF8029059
:105040000399FBF7E3F883460499FBF78DF8824652
:105050001499FBF7E1F881466168FBF785F8606019
:1050600031463846FBF7D8F8294604900698FBF7F6
:10507000D3F8039008990598FBF7CEF802900399AE
:10508000FBF772F883460499FBF7C0F8824614993F
:10509000FBF7C2F88146A168FBF766F8A0603146CD
:1050A0000698FBF7B9F8294604903846FBF7B4F8A0
:1050B000039088F0004001900899FBF7ADF802904A
:1050C0000399FBF751F883460499FBF74DF88246A4
:1050D0001499FBF7A1F88146E168FBF745F8E06019
:1050E0000BB0BDE8F08F00002DE9F04F85B004460D
:1050F0000D46E168E068FBF78FF80390A168A068AF
:10510000FBF78AF8029061686068FBF785F8019008
:1051100021682068FBF780F800900199FBF724F8DC
:1051200083460299FBF772F882460399FBF76EF803
:105130000646A1686068FBF76FF88346E16820685F
:10514000FBF76AF859460390FBF70EF882464FF0DA
:105150008041FBF761F80746A1682068FBF75CF81F
:105160008346E1686068FBF757F859460390FBF700
:105170004DF882464FF08041FBF74EF88046E168DB
:10518000A068FBF749F8834661682068FBF744F89C
:1051900059460390FAF7E8FF82464FF08041FBF74B
:1051A0003BF88146E168E068FBF736F80390A168B8
:1051B000A068FBF731F8029061686068FBF72CF893
:1051C000019021682068FBF727F800900199FBF710
:1051D0001DF883460299FBF719F882460399FAF7FE
:1051E000C3FF0490404602F05FFD80F0004028605D
:1051F0004846049902F0BAFF68600748C07810B9C1
:105200000548407820B93146384602F0AFFFA86023
:1052100005B0BDE8F08F0000B21400202DE9FE4378
:1052200005460C46A1682068FAF7F6FF0746E168D4
:105230006068FAF7F1FF80463946FAF7E7FF06465D
:105240004FF08041FAF7E8FF0090E168A068FAF7B4
:10525000E3FF074661682068FAF7DEFF80463946BB
:10526000FAF782FF06464FF08041FAF7D5FF01902A
:10527000A168A068FAF7D0FF804661686068FAF715
:10528000CBFF81464146FAF76FFF07464FF080415A
:10529000FAF7C2FF06464FF07E51FAF7BAFF0290C6
:1052A00000982860019868600298A860BDE8FE83B5
:1052B00001460020034A506820F4404008435060F3
:1052C000704700000010024029B1064A52690243AB
:1052D000044B5A6104E0034A52698243014B5A610C
:1052E000704700000010024029B1064AD26902430B
:1052F000044BDA6104E0034AD2698243014BDA616C
:10530000704700000010024029B1064A12690243AA
:10531000044B1A6104E0034A12698243014B1A618B
:10532000704700000010024029B1064A926902430A
:10533000044B9A6104E0034A92698243014B9A61EB
:10534000704700000010024029B1064AD2680243AB
:10535000044BDA6004E0034AD2688243014BDA600E
:10536000704700000010024030B5002100220024E8
:1053700000232D4D6D6805F00C0121B1042905D0E5
:10538000082923D105E0294D056022E0284D05605C
:105390001FE0254D6D6805F47012234D6D6805F40E
:1053A0008034022505EB92421CB9224D554305601D
:1053B0000BE01D4D6D6805F400351DB11B4D5543C7
:1053C000056002E01A4D5543056002E0174D056087
:1053D00000BF00BF144D6D6805F0F0010909164DBE
:1053E0006B5C0568DD4045600F4D6D6805F4E0615C
:1053F000090A114D6B5C4568DD4085600A4D6D689A
:1054000005F46051C90A0C4D6B5C4568DD40C56010
:10541000054D6D6805F44041890B084D6B5CC5680E
:10542000B5FBF3F5056130BD0010024000127A00B3
:105430000024F40000093D000000002010000020BE
:105440000149086070470000D800424230B586B07C
:105450004E4A1278521C4D4B1A7000207CE04C4A88
:1054600032F81020B2F52F6F05DC494A32F81020CF
:10547000B2F5487F05DA474A32F81020444B23F84A
:105480001020434B33F810301BB2404C2278D41715
:1054900002EB9474A410A2EB84043F4D05EBC0050D
:1054A00025F814303A4A32F810203A4B23F81020ED
:1054B00000223A4B23F8102003AB23F8102046F2C9
:1054C000A8122DF81020002131E0334A02EBC0026F
:1054D00032F9112003AB33F810309A4207DD2E4A1F
:1054E00002EBC00232F8112003AB23F810202A4A45
:1054F00002EBC00232F911203DF810309A4207DA6F
:10550000254A02EBC00232F8112092B22DF8102089
:10551000214A02EBC00232F81120204B33F8103040
:105520001A4412B21D4B23F810204A1CD1B2042990
:10553000CBDB03AB33F810303DF810402344174C5D
:1055400034F91040E21A02EBD2735B101BB2134C19
:1055500024F81030421CD0B2062880DB0F4AB2F982
:1055600006200F4B9A80DA810C4AB2F90420DA80C7
:105570009A810A4AB2F900201A801A81074AB2F9C0
:1055800002205A805A8106B030BD0000340200204B
:10559000B2130020C213002076140020A6140020AD
:1055A000641400200020002112E08010394A32F9F2
:1055B0001120B2F5966F01DD40F08000354A32F9D6
:1055C0001120B2F5E16F01DA40F040004A1CD1B27F
:1055D0000429EADB304A1278904209D12F4A127826
:1055E000FA2A08DA2D4A1278521C2C4B1A7002E063
:1055F00000222A4B1A70284A1070284A1278962ADC
:105600002DD1274A12793AB1234A12785F2A26D13E
:105610000022234B1A7122E01F4A12786F2A02D10E
:1056200001221F4B1A711C4A12785E2A02D10122F4
:105630001B4B9A71184A1278962A05D1184A127A89
:1056400012B10122164BDA71134A1278A52A03D13E
:105650000122134B1A7202E00022114B1A72104AF7
:105660001279B2B10C4A12787F2A0FD10D4A1288F2
:1056700040F6C4139A4205DA0A4A1288521C094BB2
:105680001A8006E00022064B1A7102E00022054B48
:105690001A8070476414002030020020310200207C
:1056A000B21400203202002010B5FFF77BFF024841
:1056B0000068804710BD00002C0200200021044833
:1056C000016181654163C167C0F8C4107047000083
:1056D0004816002010B50948006805280CD1084874
:1056E00001680068401C064A1060052904D10020AA
:1056F00011460860FDF7EEF910BD00002001002002
:105700004C00002000B587B00121C803FFF7ECFD75
:1057100001212D20FFF708FE2820ADF818000320F6
:105720008DF81A0018208DF81B0006A92E48FDF7E9
:10573000CFFA1020ADF8180004208DF81B0006A940
:105740002948FDF7C5FA4FF40040ADF818000320D2
:105750008DF81A0010208DF81B0006A92348FDF7CC
:10576000B7FA0820ADF8180003208DF81A001020B1
:105770008DF81B0006A91E48FDF7AAFA1020ADF807
:10578000180003208DF81A0048208DF81B0006A988
:105790001748FDF79DFA0020ADF804004FF4827021
:1057A000ADF806000020ADF80800ADF80A00ADF82D
:1057B0000C004FF40070ADF80E002020ADF8100082
:1057C0000020ADF812000720ADF8140001A9094827
:1057D00000F056F80121074800F038F8FF2000F0EB
:1057E0000BF807B000BD0000000C014000080140AC
:1057F00000140140003C004070B50546002405E05F
:10580000601CC4B2C82C01DD002070BD02210E480E
:1058100000F028F80028F3D029460B4800F02EF8B5
:10582000002405E0601CC4B2C82C01DD0020ECE7B8
:105830000121054800F016F80028F3D0024800F0D6
:105840001AF8C0B2E1E70000003C004021B1028834
:1058500042F04002028004E002884FF6BF731A4013
:10586000028070470246002013890B400BB10120D3
:1058700000E00020704701468889704781817047A9
:1058800010B50022028802F441520B884C88234351
:105890008C882343CC8823430C8923434C8923439E
:1058A0008C892343CC8923431A430280838B4FF294
:1058B000FF74234083830B8A038210BD704700006E
:1058C00038B521494868FAF72BFF044601202246E3
:1058D0000B4628210090FCF721FD1B490868FAF7C8
:1058E0001FFF0446012022460B462821009002207B
:1058F000FCF714FD14498868FAF712FF04460120EA
:1059000022460B46282100900320FCF707FD0F4894
:10591000B0F90E2005210420FEF7FDFF0B48B0F979
:105920000C2006210420FEF7F6FF0848B0F90820F5
:1059300005213920FEF7EFFF0448B0F90A200621BF
:105940003A20FEF7E8FF38BDB015002064140020AF
:1059500010B5FEF799F918490870FEF7BBF916491A
:105960004870FEF7C7FD144988700120FEF7FAFD64
:1059700012A201210020FFF7E7F812A20221002065
:10598000FFF7E2F811A203210020FFF7DDF80FA2D4
:1059900005210020FFF7D8F80EA206210020FFF70E
:1059A000D3F806A205213820FFF7CEF805A206217C
:1059B0003820FFF7C9F810BDB2140020524F4C4CEC
:1059C0003A00000050495443483A00005941573AC0
:1059D000000000005448523A000000004FF6F871F1
:1059E0000140014A11607047505C004030B50146EB
:1059F0000F4B1A78002014E003060E4C04EB93536F
:105A0000D3F8003C48F68F74234048F280042343C7
:105A1000C4B223430406074D05EB9454C4F8003C7C
:105A2000401C9042E8D341F08003034C236030BD1A
:105A300098000020005000404C5C004010B54A1017
:105A40005300054A126892B202EBC002121D034CC9
:105A500044F8123010BD0000505C0040006000406F
:105A600010B502460F48006880B200EBC200801DEE
:105A70000D4C04EB40033E290BDD481101F01F04DF
:105A80000CB9441EA0B24FF4004444EA80241C60C8
:105A900007E0481001F001040CB1441CA0B28402DC
:105AA0001C6010BD505C00400060004030B50E4CE2
:105AB00004EB8003D3F8003C4BF68F7403EA040236
:105AC00001F480530BB182F4805201F400530BB106
:105AD00082F4005242F4004343F08003024D05EB90
